:020000022000DC
:1060000000000120F9620200216302002363020004
:1060100025630200276302002963020000000000DC
:106020000000000000000000000000002B630200E0
:106030002D630200000000002F63020031630200A4
:10604000918B0200336302008994020029CB020085
:106050003363020033630200498F0200336302009E
:1060600033630200336302003363020033630200D0
:1060700033630200336302003363020033630200C0
:10608000336302003573020033630200336302009E
:10609000D573020033630200A5C30200336302001C
:1060A0003363020033630200336302003363020090
:1060B00033630200336302000000000000000000B0
:1060C0003363020033630200336302003363020070
:1060D00033630200336302003363020000000000F8
:1060E00000000000000000000000000000000000B0
:1060F00000000000000000000000000000000000A0
:10610000000000000000000000000000000000008F
:10611000000000000000000000000000000000007F
:10612000000000000000000000000000000000006F
:10613000000000000000000000000000000000005F
:10614000000000000000000000000000000000004F
:10615000000000000000000000000000000000003F
:10616000000000000000000000000000000000002F
:10617000000000000000000000000000000000001F
:10618000000000000000000000000000000000000F
:1061900000000000000000000000000000000000FF
:1061A00000000000000000000000000000000000EF
:1061B00000000000000000000000000000000000DF
:1061C00000000000000000000000000000000000CF
:1061D00000000000000000000000000000000000BF
:1061E00000000000000000000000000000000000AF
:1061F000000000000000000000000000000000009F
:106200000348044B834202D0034B03B11847704745
:10621000F82A0020F82A0020000000000548064B5C
:106220001B1AD90F01EBA301491002D0034B03B194
:1062300018477047F82A0020F82A002000000000C4
:1062400010B5064C237843B9FFF7DAFF044B13B1BE
:106250000448AFF300800123237010BDF82A00200A
:106260000000000098E7020008B5044B1BB1044988
:106270000448AFF30080BDE80840CFE7000000000D
:10628000FC2A002098E70200A3F5803A704700BF7F
:10629000154B002B08BF114B9D46FFF7F5FF002162
:1062A0008B460F461148124A121A06F015FF0C4B86
:1062B000002B00D098470B4B002B00D098470020B4
:1062C000002104000D000B4807F004F806F064FEFE
:1062D0002000290004F03AFA06F0EAFF0000080066
:1062E000000000000000000000000120F82A00204B
:1062F00038400020E1D202000649074A074B9B1AAA
:1063000003DD043BC858D050FBDC02F0D7F8FFF7A0
:10631000BFFF000010E90200982A0020F82A0020A0
:10632000FEE7FEE7FEE7FEE7FEE7FEE7FEE7FEE745
:10633000FEE7FEE7704700BF00B583B0044B009353
:10634000044A402300F03AF803B05DF804FB00BFB4
:1063500059630200142B002022B32DE9F843134B9C
:10636000134E88461446032743F0010900252246B0
:1063700008EB0501002004F015FB034601224FF451
:106380007A40E41A1D4443B933784BB1C847013F02
:106390004FF0010307D03370E9E73270002CE6D1EB
:1063A000BDE8F88370473770BDE8F88390D70200E6
:1063B000542B0020704700BF04F0B6BBF0B595B079
:1063C000084600240E4617461D4601F083FF1A9921
:1063D0000D912346082205A93046CDE908750A9497
:1063E0008DF82C400C9401F0D9FFDDE906219DF8D1
:1063F00014308DF81140CDE9021203F00302012A96
:1064000028D0022A04D0304601F068FF15B0F0BD54
:10641000BDF81650C3F3C203C5F389158DF81030CB
:106420000827082D2C4628BF08243B4622460EA9E3
:10643000304601F0B3FF2D1B08AB02AA21460EA87F
:10644000274400F081FD002DEBD1304601F046FFDE
:1064500015B0F0BDBDF814100598C1F38312C3F355
:10646000C203C0F395258DF81030C1F38314304674
:106470000EA99200082301F091FF08AB0093224679
:1064800002AB0EA9284600F0E9FC304601F026FFD9
:1064900015B0F0BD10B5FFF78FFF0421074800F0DD
:1064A00059FC074B01245C7106F016FB05480421DA
:1064B00000F050FC044B5C7110BD00BFF8E8020016
:1064C000A02A0020E8E80200982A0020000000002E
:1064D0009FED0D7B0E4B0F4810B50022FF21C3F836
:1064E000182483ED007B9960C3F8142483F82024DA
:1064F00001F0A2FE044610B9074801F099FF2046BA
:1065000010BD00BFAFF300800000000000000000DD
:10651000582B002064E8020094E1020030B499B1E5
:106520000D490E4D491BC90813D00D4C002302E044
:10653000013399420AD034F823208242F8D1184618
:1065400055F8300030BC7047044DF9E7002030BCEE
:1065500070470846F6E700BFE8E8020078E8020066
:10656000F82A0020094B013903EBC00303290BD89B
:10657000DFE801F00402080604207047022070479B
:1065800058797047187970470020704778E8020002
:106590002DE9F047944CD4E900239A4284B062D0AC
:1065A0000023C4F81834BFF34F8FD4E9013503EA50
:1065B0000501CA1C04EB820C14F8222050071BD5DD
:1065C00026689CF8002002F00302012A43D0022A28
:1065D00004D1BCF80220023303EB921303EA050155
:1065E000D4F81804CA1C04EB820C28B99E4239D98D
:1065F00014F822205207E4D404EB81019E1C0133DD
:10660000CA6801922B4004EB830302F00302DB68AB
:106610000293022A2BD0012A00F08380D4F8105470
:106620003DB12B6828469B689847EB681D68002D94
:10663000F7D16E486E4B6F49C01AC008000440F095
:10664000020000F0DDF8D4E90030C01A18BF0120C4
:1066500004B0BDE8F087BCF800200233C2F3831217
:106660001344BBE76660002004B0BDE8F087BDF8C6
:1066700006306148C3F38919B9F1500FC84628BFE5
:106680004FF0500868F38F1308F10801ADF8063099
:1066900001F0D4FD07460028C0D001F01BFE002306
:1066A000082201A9384601F045FE25EA0603013318
:1066B000B8EB830F4FEA830A73D9BAF1000F7DD18B
:1066C0004E4942460823384601F034FE09F10309D9
:1066D00006EB9906D4F81834D4F81054002B5CD18A
:1066E00065B1EB685A7939462846002A64D02B6890
:1066F0001B689847EB681D68002DF2D1384601F001
:10670000EDFD00230DF103008DF8033001F012F9C7
:10671000D4F8183403B966609DF8030001F030F92D
:1067200091E7BDF804203448C2F38313062B28BF39
:10673000062363F38912023303F00F018900ADF8D9
:10674000042001F07BFD074600283FF467AF01F00D
:10675000C1FD0023082201A9384601F0EBFDBDF878
:10676000043013F4707FB5D04FF000083146294053
:106770004FEA88030331083304EB810104223846D1
:1067800001F0D8FDBDF8043008F10108C3F383130C
:10679000434506F10106E9D89CE7384601F09EFD25
:1067A00051E705EA06010331424604EB8101082363
:1067B000384601F0BFFD89E71D6891E705EA06014B
:1067C0000331A8EB0A0504EB810152463846EDB2CD
:1067D000082301F0AFFD09490AF108032A463846AB
:1067E00001F0A8FD72E700BF582B0020A8E80200C6
:1067F00078E80200C8D7020064E80200642B002099
:106800002DE9F04F6B4C87B0002307460DF10B00CC
:106810008DF80B30D4F808908B4601F08BF8D4E952
:106820000132D4F800A013440133A3EB0A03012B77
:1068300000F2BD80CDE9009704F21C4604F58368A0
:1068400004F214451CE002286FD1BDF80E30C3F3EA
:10685000891303333F0C0CEB9309284601F010F920
:10686000394600283FD03046C4F8049001F0E4F8DF
:10687000D4E901322168134401335B1A012B5CD83F
:106880000121304601F0D8F8404601F0EDF82846E5
:1068900001F0EAF8D4E9013703EA0702D11C04EB5E
:1068A000810E14F8211001F00400490703F1020CD5
:1068B0002CD404EB82020133D26803923B4004EBF8
:1068C000830302F003000128DF68E146BBD1BDF875
:1068D0000C302846C3F38313994401F0D1F83F0CE0
:1068E00039460028BFD13046C0E7BEF802300CEB75
:1068F000931307EA0302D11C04EB810E14F8210064
:1069000000F0040003F1020C0028D2D09EF8001021
:1069100001F0030101290AD0022902F10301E4D0A8
:1069200004EB810E0028F1D1C3E7002795E7BEF8FC
:106930000030C3F383136344DBE7DDE9009701EA2A
:1069400002030333052244F8232002319DF80B0093
:10695000216001F015F80021174801F04BF880F391
:1069600010020AF1010101EA09011204FB0004EB23
:10697000810142EA174203F0380309EA0A09CA60B2
:1069800043F0010309F1030243EA8B2344F8223068
:1069900094F8203413B907B0BDE8F08FFFF7F8FD85
:1069A0000028F8D0FFF7F4FD0028F7D1F3E75146AF
:1069B000C5E700BF582B0020742F00202DE9F04FB1
:1069C00089B06F4C019000230DF1130017468DF82C
:1069D0001330D4F808908B4600F0ACFFD4E90132B4
:1069E000D4F800A013440133A3EB0A03022B00F2F6
:1069F000C480CDE9029704F21C4604F5836804F2D2
:106A000014451CE002286FD1BDF81630C3F389137A
:106A100003333F0C0CEB9309284601F031F839465B
:106A200000283FD03046C4F8049001F005F8D4E9BE
:106A300001322168134401335B1A022B5CD8012117
:106A4000304600F0F9FF404601F00EF8284601F00C
:106A50000BF8D4E9013703EA0702D11C04EB810EDD
:106A600014F8211001F00400490703F1020C2CD4A2
:106A700004EB82020133D26805923B4004EB8303AE
:106A800002F003000128DF68E146BBD1BDF81430F5
:106A90002846C3F38313994400F0F2FF3F0C3946B4
:106AA0000028BFD13046C0E7BEF802300CEB93138C
:106AB00007EA0302D11C04EB810E14F8210000F058
:106AC000040003F1020C0028D2D09EF8001001F05F
:106AD000030101290AD0022902F10301E4D004EBE9
:106AE000810E0028F1D1C3E7002795E7BEF80030FA
:106AF000C3F383136344DBE7DDE9029701EA020392
:106B00000333452244F8232003319DF8130021600C
:106B100000F036FF0AF1020303EA090304EB8303E2
:106B200000211848DF6000F065FF80F31001019B31
:106B3000090441EA13410AF10100DB0003F03803C4
:106B400000EA090009EA0A0243F0410304EB80006D
:106B5000033243EA8B23C16044F8223094F8203496
:106B600013B909B0BDE8F08FFFF712FD0028F8D087
:106B7000FFF70EFD0028F7D1F3E75146BEE700BF4F
:106B8000582B0020742F00202DE9F04F89B06F4C56
:106B9000009001930DF11300002317468DF8133078
:106BA000D4F808908B4600F0C5FED4E90132D4F841
:106BB00000A013440133A3EB0A03032B00F2C480AB
:106BC000CDE9029704F21C4604F5836804F21445EB
:106BD0001BE0022A6DD1BDF81630C3F389130333CD
:106BE0003F0C0CEB9309284600F04AFF394608B1E8
:106BF000C4F80490304600F01FFFD4E90013A268E7
:106C0000134401335B1A032B55D80121304600F0A1
:106C100013FF404600F028FF284600F025FFD4E986
:106C2000013703EA0702D11C04EB810E14F821108E
:106C300001F00400490703F1020C25D404EB8202A1
:106C40000133D26805923B4004EB830302F0030258
:106C5000012ADF68E146BCD1BDF81430C3F38313C9
:106C60003F0C9944BFE7BEF802300CEB931307EAE0
:106C70000302D11C04EB810E14F8210000F0040083
:106C800003F1020C0028D9D09EF8001001F0030196
:106C9000012908D0022902F10301E4D004EB810E9E
:106CA0000028F1D1CAE7BEF80030C3F38313634470
:106CB000DDE7002797E7DDE9029701EA02030333E6
:106CC000852244F8232004319DF81300216000F050
:106CD00057FE0AF1020303EA090304EB8303019A56
:106CE000DF600AF1030303EA090304EB83030021D5
:106CF0001748DA6000F07EFE80F31001009B090463
:106D000041EA13410AF10100DB0003F0380300EA15
:106D1000090009EA0A0243F0810304EB8000033210
:106D200043EA8B23C16044F8223094F8203413B92D
:106D300009B0BDE8F08FFFF72BFC0028F8D0FFF773
:106D400027FC0028F7D1F3E75146B6E7582B00207F
:106D5000742F002030B4154DD5F81014044679B1C5
:106D600000200B4601E01B685BB1DB681A798242A8
:106D7000F9D101300A28F4D14FF0FF3030BC704710
:106D80000846E3681871D5F810344BB1DA68E36847
:106D900012681A60D5F81034DB681C6030BC70478C
:106DA000C5F81044E268136030BC7047582B0020CF
:106DB00038B5094BD3F81044012583F820544CB161
:106DC000E3685D71236820465B689847E3681C6848
:106DD000002CF5D138BD00BF582B002030B5C3883A
:106DE00083B004460D461BBB237A052B1ED0627A66
:106DF0007AB9134AA08852F823400021FFF78EFB8E
:106E0000104903462246284603B0BDE8304000F052
:106E1000B1BE1946A088FFF7A5FB0B4B0B4953F8F1
:106E20002020284600F0A6FE237AE2E703B030BD1A
:106E300007490091074A0849284600F09BFED3E71E
:106E4000C4E102000CD80200A0E1020008D8020050
:106E500000D80200E0D70200E8D702002DE9F04395
:106E600085B01D460C9C002394F80C90237380463B
:106E70000E46174621462846FFF7B0FF062F09D8D1
:106E8000DFE807F0042E343B444F1F004146204604
:106E900000F070FE2B7A052B05D06B7A5BB9274981
:106EA000204600F067FE204600F058FE84F80C9063
:106EB00005B0BDE8F083224A2249204600F05AFE80
:106EC000EDE77369039333690293F3680193B36841
:106ED0000093D6E900234146204600F04BFED9E757
:106EE00032684146204600F045FED3E7D6E900234C
:106EF0004146204600F03EFECCE7B3680093D6E959
:106F000000234146204600F035FEC3E7F3680193B5
:106F1000B3680093D6E900234146204600F02AFEDC
:106F2000B8E733690293F3680193B3680093D6E935
:106F300000234146204600F01DFEABE718D80200B2
:106F400000D8020008D80200082900D970472DE9AE
:106F5000F04F1D4683B000241B7B2C730E46074662
:106F60002946104690460193DFF8C0B0DFF8C0A074
:106F7000FFF734FF05E03A5D013400F0FBFD082C1B
:106F800009D0A64251462846F5D85946013400F0AA
:106F9000F1FD082CF5D12049DFF898B0DFF898A072
:106FA0001E4C284600F0E6FD4FF000090EE017F8F1
:106FB00009201AF802C01CF0970F08BF2E2209F111
:106FC000010900F0D7FDB9F1080F0BD04E4521465D
:106FD0002846ECD8594609F1010900F0CBFDB9F17A
:106FE000080FF3D198F80830052B02D098F8093033
:106FF0005BB90B49284600F0BDFD284600F0AEFD08
:10700000019B2B7303B0BDE8F08F064A0649284662
:1070100000F0B0FDEDE700BF28D802002CD8020038
:1070200018D8020000D8020008D8020024D80200B4
:107030001CD8020030D8020095E602002DE9F84F76
:10704000394B93F800B0BBF1000F5AD0DFF8E08065
:10705000DFF8E0900024012503E00134E3B29B4512
:107060004FD9324BD8F800101E68D8F8047016F8C3
:107070003400A0F12002C0F1200325FA03F305FA41
:1070800002F21A4305FA00FC01EA0C0307EA020EB9
:1070900053EA0E0306EBC40ADFD027EA020721EA0F
:1070A0000C01C8F80470C8F8001001F043FF024654
:1070B00016F83400A0F12003C0F1200125FA01F1F7
:1070C00005FA03F30B43D9F8001005FA00F60E4059
:1070D000D9F80410C0F120070B40A0F1200122FADA
:1070E00007F702FA01F1394302FA00F78B4208BFB1
:1070F000BE4208D00C4B013493F800B0E3B29B457C
:10710000AFD8BDE8F88FDAF80430002BF2D09AF847
:107110000110A1F10101B1FA81F14909891AB1FA0D
:1071200081F149099847E5E71C3100202031002012
:10713000E8300020F0300020F8B507461F4800F086
:10714000BFFBD0B901231E4EA7F12004C7F12002D6
:1071500023FA02F203FA04F4144303FA07F532683F
:10716000736802EA050103EA0400014306D022EA3B
:10717000050223EA0403C6E90023F8BD384601F0FE
:10718000D9FE104B1968A0B95A6821EA050122EA14
:107190000402C3E90012D6E900230B490748096835
:1071A0002A43234332607360BDE8F840002200F0B8
:1071B00031BB5A6829432243EBE700BFF830002077
:1071C000E8300020F030002018310020042A3BD99C
:1071D0002DE9F04182B0144605460E4601F056FDF9
:1071E00068B31E4B1E4A1E701E4B1F491C60156063
:1071F00000230022C1E900231C49741EC1E90023B9
:10720000E4B21EB31A4E05EBC4044FF00008032786
:1072100002E0A5421AD01C46A37820788DF80530EC
:10722000324601A98DF806808DF8047001F038FD12
:10723000A4F108030028ECD002B0BDE8F08101F011
:10724000DFFC0028CDD0F7E707207047094A0A483D
:10725000002102B0BDE8F04100F0CABA1C310020A4
:107260002031002018310020F0300020E8300020CC
:10727000397102003D700200D8E1020070B5084D7E
:107280002B785BB1074E00243368012113F83400DA
:1072900001F0F4FD2B780134A342F5D8002070BD35
:1072A0001C3100202031002000B585B003460021AC
:1072B00001AA44F20100CDE90111039300F004F8A2
:1072C00005B05DF804FB00BF10B572B6FFF770FDA6
:1072D000FFF75EF90028FBD1104B114C1149E41A5D
:1072E000E408240444F00100FFF78AFA0E4BD3F8B7
:1072F000F030DB0700D500BE0C4944F00200FFF778
:107300007FFABFF34F8F0849094BCA6802F4E06265
:107310001343CB60BFF34F8F00BFFDE778E8020057
:10732000A8E802008CD8020000ED00E098D8020026
:107330000400FA05F8B5204A204B0024C2F8404169
:10734000C2F84441C2F84841C2F84C41C2F8004179
:10735000C2F804411B6833B31949D2F804550A68CE
:10736000AD1A1A6825F07F45AA4227460DD8197C28
:10737000DE69AD1A144419B1D3E905201F74904792
:107380001EB133461A68AA42F1D90E490E4A0B784B
:1073900012789A4208D00D480D4A40F823404FF425
:1073A0008011C2F80011F8BD0132D3B2022B08BF20
:1073B00000230B70EFE700BF0010014034310020C4
:1073C00030310020263100202731002028310020D4
:1073D00000E100E02DE9F04FA74AA84913780978A9
:1073E000DFF8BC929942D9F8004085B000F05C818A
:1073F0000133DBB2022B08BF0023A14D13701946E5
:10740000A04B2F6853F821107B1823F07F432B608B
:10741000002C00F090810026BE4623463546B44637
:10742000374613E0DE68D869C3F800C01544891AEE
:107430003EB10EEB050222F07F42C3E90126DF6177
:107440001F460126002800F0338103461A688A424D
:10745000E8D9BA4616B1C9F800000446521A1A60B3
:107460000121CDE901144FF0000B874FDFF81082A6
:1074700025465E46BAF1000F2FD0DAE901035446E3
:10748000DAF81CA0D8F80020DFF818C2811A21F021
:107490007F4161454CD80B440122C4E90036A66007
:1074A0002274E661002D56D02868984250D22A46B0
:1074B00000E008469646D2699C461B1A32B1116814
:1074C0008B42F6D8A0EB0C0C614411602360E261A2
:1074D000CEF81C40BAF1000FCFD13B787A789A42AF
:1074E0004DD003EB4302B978013307EBC202DBB2A4
:1074F000994208BF00233B7013799468022B2ED069
:10750000032B71D0012BE8D1217C0029E5D1D06873
:1075100060601369A3608C465169E1609269A26161
:107520005A4A1278002AADD0C4F804C06046A9E7D0
:10753000121A22F07F429A4201D29B1AACE7012331
:10754000C4E90066A6602374E66125B128680023BB
:10755000C31A2B60E561C9F8004025468AE74DB1A2
:10756000AC422B4602D174E09C4246D01A46DB69FD
:10757000002BF9D126743B787A789A42B1D1DDE9B3
:107580000114BBF1000F01D1A54242D0002D44D01F
:107590003B4A3F4B1468D3F804653E4FD5F8008052
:1075A0003A78351B25F07F450335002A00F08680A8
:1075B0003749A8452CBF04EB0803631923F07F4328
:1075C000C1F84035D1F80425921B9B1B22F07F4265
:1075D000033223F07F439A4200F289802B4A002332
:1075E000137005B0BDE8F08F2DB12E74ED69002D3C
:1075F000FBD1C9F8005000256FE7A24229D0E3690A
:107600002168D361002BB5D01A680A441A60267429
:10761000B1E70029E2D0002DBAD11F4B1C4E1F4C00
:107620004FF40032C3F8802001274FF48033C6F8AE
:1076300048333C43C6F808334FF43C607760A047BA
:107640000F4BB7604FF43C601D60A047114B1D709D
:10765000C4E7EA69C9F80020002A58D0D969186837
:1076600011B10B6803440B6095421CBF15464FF0E7
:10767000010B26747FE700BF273100202631002050
:107680003031002028310020383100202431002002
:10769000001001402531002000E100E0E0E102009F
:1076A00034310020FEFF7F004FF0000A5146D8E63B
:1076B000BA46C9F8000004463146D2E61F49204ABE
:1076C0004FF48030C3F844034FF00109C3F80403BA
:1076D0004FF40030C1F8800142F001020860C3F8A5
:1076E00000904FF43C60904787F8009060E7144B9F
:1076F000D1F80425C1F8402543F001034FF43C6064
:1077000098470E4B4FF40032C3F8002166E703930D
:10771000DFF838C00B4B0A490120CCF8080018707C
:10772000094841F0010102604FF43C608847D9F8F4
:107730000020039B92E7A246012192E600E100E0CF
:10774000E0E102002431002030310020001001402F
:107750002DE9F0411D4D1E4E1E4FDFF890804FF475
:1077600080334FF400320124C6F880202743C5F847
:1077700048334FF43C60C5F808336C60B847AC60E0
:107780004FF43C600024C8F80040B847124B13493E
:107790001C70134B0C801C60124B1C70124B4FF46E
:1077A00080121C700B20E0238870C6F8802186F8B8
:1077B00014333260C5F8084586F81133D5F804351E
:1077C000C8F800302046BDE8F08100BF001001403D
:1077D00000E100E0E0E10200253100203831002026
:1077E00034310020273100202631002030310020A4
:1077F000074B9B783BB142B138B10368187C10B994
:1078000059745A617047082070470720704700BFBD
:10781000383100202DE9F043264EB37883B0002B99
:107820003BD00446002838D004290D4639D9436995
:107830009BB3437C0027012B0DF107000CBF88464A
:107840004FF0000891468DF8077000F073F87378D8
:10785000B2789DF80700591CC9B28A4208BF394660
:1078600032788A4221D003EB430306EBC303124A6A
:107870009C6001241C71D2F804257170C3E90325B2
:10788000C3E9058900F07CF80C4B4FF48012C3F873
:107890000021384603B0BDE8F083082003B0BDE8FE
:1078A000F083072003B0BDE8F08300F069F80420FE
:1078B000F0E700BF383100200010014000E100E097
:1078C00070B51A4CA37882B04BB3054638B3436900
:1078D0002BB3002606740DF107008DF8076000F049
:1078E00029F86278A1789DF80700531CDBB2994211
:1078F00008BF33462178994214D002EB42026370EC
:1079000004EBC20402232371A56000F039F8084B90
:107910004FF48012C3F80021304602B070BD082039
:1079200002B070BD00F02CF80420F6E738310020DA
:1079300000E100E070B4EFF3108472B60D4A936872
:10794000ABB9012191600C490C4ED1F88050354003
:107950001560C1F88060D1F8845055604FF0FF3257
:10796000C1F88420037004B962B670BC704701236B
:10797000F8E700BF4432002000E100E0FC06FFBD54
:10798000094B9A687AB170B910B4EFF3108172B6EE
:10799000064A1C6814605C685460986001B962B65D
:1079A0005DF8044B704770474432002000E100E06E
:1079B0004B0901F01F024FF0010C0CFA02F100EB31
:1079C000830000F021B800BF01F01F02012303FA79
:1079D00002F24B0900EB8300D14300F021B800BF55
:1079E0004B0901F01F0150F82300C84000F00100CE
:1079F000704700BF034653E8000F0A4643E8002CD7
:107A00009CF0000FF7D17047034653E8002F42EA7D
:107A1000010043E8000C9CF0000FF6D1704700BF56
:107A2000034653E8002F02EA010043E8000C9CF0F3
:107A3000000FF6D1704700BF034653E8002F02EB5A
:107A4000010043E8000C9CF0000FF6D1704700BF26
:107A5000034653E8002FA2EB010043E8000C9CF022
:107A6000000FF6D1704700BF0346012253E8001F04
:107A700041EA020043E8000C9CF0000FF6D1704789
:107A80000346002253E8000F00EA020143E8001C0D
:107A90009CF0000FF6D17047D0B110B4D0E90112BC
:107AA000521A0468D2B2531E2160DBB252B101688F
:107AB0000A6803F1FF3C541C0C6013705FFA8CF3EE
:107AC000FF2BF4D10368002018715DF8044B704758
:107AD0000E20704730B583B0044600250DF1070035
:107AE0008DF80750FFF726FFD4E900311A688A4263
:107AF00010D9511E19602168A3680D6812F8012C75
:107B0000208A5B1BE56800FB02550A79DBB29A42CA
:107B100038BF0B719DF80700FFF732FF284603B00E
:107B200030BD00BF30B5054683B000230DF107001E
:107B30000C468DF80730FFF7FDFE2A681368591CC4
:107B40001160E9682A8A641AB4FBF2F41C709DF88B
:107B50000700FFF715FF03B030BD00BF826842B1D8
:107B600010B5044643690168006998470023A36083
:107B700010BD70470EB400B582B0039921B104ABBB
:107B800001AA019300F09CF802B05DF804EB03B089
:107B9000704700BF2DE9F84F1546A942DDF828A02F
:107BA0000B9A0F4606469B46C0F085800B464FF069
:107BB0000108B3FBF5F39D4208F10108F9D9D84556
:107BC00038BFD84612F00109B16802D1BAF1000FEE
:107BD00051D1BBF1010F4FF0010406D90BF1FF3B6E
:107BE000BBF1010F05FB04F4F8D8B7FBF4F29542A2
:107BF00005D805FB04F4B7FBF4F29542F9D9DFF898
:107C0000BCB007E0AC42B4FBF5F316D3B7FBF3F21C
:107C1000B1681C464B1CB36033681BF80200585413
:107C200004FB1277D6E901329A42EBD33046FFF7D4
:107C300095FFB4FBF5F3AC42E8D2B9F1000F18D0D0
:107C4000BAF1000F15D0C24513D9202401E0C24576
:107C50000FD0B3683268591CB160D454D6E90132F0
:107C60009A420AF1FF3AF2D33046FFF777FFC24556
:107C7000EFD1BDE8F88F930717D42024C245A8D9C7
:107C800032684B1CB3605454D6E9012191420AF189
:107C9000FF3A05D2BAF1000F9BD0C245F0D198E768
:107CA0003046FFF75BFFB168F4E7BBF1000F0CBF94
:107CB00030242024E2E74FF0010880E7E8E10200E9
:107CC000002900F0E4812DE9F04F0C4685B014F84E
:107CD000013B064691461BB913E023788BB1013472
:107CE000252B15D0B2683168501CB0608B54D6E992
:107CF00001329A42F1D33046FFF730FF2378002B50
:107D0000EDD1337B002B40F0B98005B0BDE8F08F9A
:107D10002246002712F8013B2D2B00F08780302BE4
:107D200000F088802B2B78D02A2B00F08780A3F1DD
:107D3000300109294FF000050DD805EB850503EB4F
:107D400045051378A3F1300109291446A5F1300542
:107D500002F10102F1D92E2B224678D04FF0000813
:107D6000541C03F0FB02682A4CD0252B52D0583B00
:107D7000DAB2202AB1D8202BAFD801A252F823F0D2
:107D8000197F0200DB7C0200DB7C0200DB7C02004E
:107D9000DB7C0200DB7C0200DB7C0200DB7C02007F
:107DA000DB7C0200DB7C0200DB7C02005B800200EB
:107DB000897E0200DB7C0200DB7C0200DB7C0200AF
:107DC000DB7C0200897E0200DB7C0200DB7C02009F
:107DD000DB7C0200DB7C0200DB7C0200DB7C02003F
:107DE000357F0200DB7C0200DB7C0200E17F0200C9
:107DF000DB7C020051800200DB7C0200DB7C0200A5
:107E0000197F020014F8013B03F0FB02682AF9D045
:107E1000252BACD13168B26866E747F004071446F9
:107E2000224612F8013B2D2B7FF479AF47F0010772
:107E30001446F5E747F002071446F1E7D9F8003099
:107E4000191DC9F800101D6863782E2B86D1537850
:107E5000A3F13001092902F101024FF000083FF6B9
:107E60007FAF08EB880803EB480812F8013FA3F145
:107E700030010929A8F13008F3D971E7304605B07F
:107E8000BDE8F04FFFF76ABED9F800301A1DC9F8F7
:107E90000020D3F800A08AEAEA73A3EBEA73092B67
:107EA00040F3AF81B84801211A46632AA0FB03C3FF
:107EB00001F101014FEAD303F6DC414538BF4146E9
:107EC0008B4607F00301002D00F0E280BAF1000FAD
:107ED00007F00202C0F2368117F0040340F0588127
:107EE000002A40F09881002F40F0EA805D4540F282
:107EF000E7802023B268501CB06030688354D6E914
:107F00000102824205F1FF3580F03181002D00F041
:107F1000BF80AB45EED1BCE0D9F80010434610223B
:107F2000081DC9F8000009683046CDE90057FFF781
:107F300031FED2E6D9F800301A1DC9F80020D3F876
:107F40000080B3683268581C3021B060D154D6E943
:107F50000123934280F02B81591C3268B160782153
:107F6000D154D6E901329A4280F04681B8F10F0F20
:107F7000474603D943461B090F2BFCD8012508238C
:107F8000013B012B29464FEA0515F9D1B8FBF5F362
:107F90000F2B09D90D02B8FBF5F30F2B04D92D01D6
:107FA000B8FBF5F30F2BFAD8DFF8E08106E00F2DD0
:107FB0004FEA15137FF691AEB2681D46511CB160B1
:107FC0003168B7FBF5F318F80300885405FB137705
:107FD000D6E901329A42EAD33046FFF7BFFDE6E721
:107FE000D9F800301A1DC9F8002017F00107D3F89E
:107FF00000806ED098F80020002A00F01381B3684A
:108000004746C8F1010A3168581CB060CA54D6E925
:10801000012393420AEB070830D217F8012F002AF8
:10802000F1D145457FF659AE202702E045453FF4A2
:1080300054AEB3683268591CB160D754D6E90132E6
:108040009A4205F1FF35F1D33046FFF787FDEDE7A2
:10805000D9F8001043460A2262E7D9F800301A1D09
:10806000C9F800201978B3683268581CB060D15440
:10807000D6E901329A42FFF430AE3CE63046FFF7D3
:108080006DFD17F8012F002ACBD0B368BBE770470E
:108090000025BAF1000F5DDB07F0040373B1B2688D
:1080A0003368501CB0602B209854D6E901329A42B4
:1080B00004D330460391FFF751FD039902297BD089
:1080C000CDE90057434651460A223046FFF762FD8C
:1080D00003E6B8F1000F03D0404604F091FF0746D5
:1080E000BD4214D94FF0200A01E0BD420FD0B36861
:1080F0003268591CB16002F803A0D6E9012393420B
:1081000005F1FF35F1D33046FFF728FDEDE798F88C
:108110000020002A3FF4E1ADB3683168581CB0601C
:10812000CA54D6E90123934204D218F8012F002A39
:10813000F3D1D2E53046FFF711FD18F8012F002AE0
:10814000EAD1CAE5013D002A5DD0B8F1000F01D0A7
:10815000F80725D5B2683368501CB0602D209854BC
:10816000D6E901329A4209D2CAF1000AA6E730469E
:108170000391FFF7F3FC03992023C7E630460391F0
:10818000FFF7ECFC0399EFE7CDCCCCCCE8E10200A3
:10819000013D12B1B8F1000F80D0FA073FF57EAF74
:1081A000002D3FF475AFAB45FFF4A3AE71E7304649
:1081B000FFF7D4FCB368CFE6B8F1000F80D1002DF3
:1081C0003FF47EAFAB45BFF47BAF3021B26833687C
:1081D000501CB0609954D6E901329A4205F1FF353E
:1081E00005D2002D3FF46CAFAB45EFD168E73046C8
:1081F000FFF7B4FC3021F4E73046FFF7AFFCB2687C
:10820000B4E6012159E6FB07A4D4002DA2D0AB456A
:10821000FFF46FAE9EE7B8F1000F05D102297FF49D
:108220004FAFCFE79046FCE6FB073FF547AF5D4514
:108230003FF65FAE42E700BFFFF72EBC2DE9F041ED
:10824000078ACE1C043F3E440546B6FBF7F6FFF70F
:1082500041FC002834D0F6B24FF48073013E04464E
:108260008380C78005602CD003464FF0000807E0EC
:108270006279464502F1010262713860056020D0E2
:1082800028461F46FFF726FC08F101080346002890
:10829000EED167792668791E16D0224601339942BD
:1082A0001268FBD1D2F8008057B1002501E03446B6
:1082B0003668214640460135FFF734FCAF42F6D818
:1082C00000242046BDE8F08121463046FFF72AFC15
:1082D000F6E700BF01210430FFF7AEBB2DE9F04106
:1082E000012104460430FFF7B3FB10F0FF0301D077
:1082F000BDE8F08167792668791E15D022460133E2
:1083000099421268FBD1D2F80080002FF0D00025EE
:1083100001E034463668214640460135FFF702FC4D
:10832000AF42F6D8BDE8F08121463046BDE8F041C5
:10833000FFF7F8BB2DE9F8438846C788417907FB6A
:1083400001F1043902EB030C1E1D6145154638BFCF
:10835000CD1AB7420446B6FBF7F207FB126002D80B
:10836000013A2468FCD13E1AAE4228BF2E469DB188
:108370004FF000090430AD1B324608EB09012044E0
:1083800004F0FCFEAF42B14424683E464FF00000CA
:1083900028BF2E46002DEDD1BDE8F8832DE9F84326
:1083A0000446C788407907FB00F0043802EB030C51
:1083B0001E1D6045154638BFC51AB7428846B6FB34
:1083C000F7F207FB126102D8013A2468FCD17E1A49
:1083D000AE4228BF2E469DB14FF000090431214422
:1083E000AD1B324608EB090004F0C8FEAF42B144B1
:1083F00024683E464FF0000128BF2E46002DEDD1E7
:10840000BDE8F883064A074B10B5002414701C60C1
:10841000BFF35F8F0449054800F018F8204610BDEF
:10842000583200205C320020F8E102005032002077
:108430008268002393608268136182685361826856
:10844000D3608268536082681360704701600B6874
:1084500043604A68934208BF00234360704700BFEF
:10846000436843B1026891680B4443605268934289
:1084700004BF0023436070470E49A1F5947205E0E4
:1084800052F83330984238BF614607D28B1A1B111D
:10849000914202EBC30CF3D80748704702D90CF1A4
:1084A0000802F3E7DCF80400034B002808BF184675
:1084B000704700BF2CE302002CE3020010B44FF021
:1084C000704393F8E02F062A22D04FF08053D3F860
:1084D0003021062A5FD0BD4AD2F8883043F47003B9
:1084E000C2F88830BFF34F8FBFF36F8F4FF0102368
:1084F000D3F80022002AC0F23881D3F80432002BCE
:10850000C0F23381B24BB34A1A605DF8044B704736
:10851000D3F8E42F1107D8D1D3F8E83F03F0F002E5
:10852000302A61D003F0E003402B5DD04FF0704360
:10853000D3F8E83F03F0E003402B73D04FF07043D3
:10854000D3F8E83F03F0E003402B00F08F804FF0BA
:108550007041D1F8E83F03F0F003502B00F0B380F6
:108560004FF07043D3F8E83F03F0F002302A1ED0FA
:1085700003F0E002402A1AD003F0E003402BA4D11C
:108580004FF08043D3F80024D20744BF6FF00102BC
:10859000C3F8002499E7D3F83431062B9BD18E4AD7
:1085A000D2F83C3743F48063C2F83C3793E74FF08E
:1085B00080524FF07043D2F8582293F8E01F4FF0EA
:1085C000804002F04F020629C0F8E42E7FF47DAF10
:1085D000D3F8E42F11077FF478AFD3F8E83F03F026
:1085E000F002302AC8D1CBE74FF080524FF07043F1
:1085F000D2F8242393F8E01F7848C2F30422062916
:10860000C0F840257FF461AFD3F8E42F12077FF460
:108610005CAFD3F8E83F03F0F003302B86D1704B0A
:10862000704A5A674FF080524FF07043D2F844229C
:1086300093F8E01F4FF08040C2F342320629C0F8A1
:108640003C257FF442AFD3F8E42F14077FF43DAF0D
:10865000D3F8E83F03F0F003302B7FF46FAF5B4AB1
:10866000D2F8FC3023F08073C2F8FC304FF0704237
:108670004FF0804192F8E00F00230628C1F80C313A
:10868000C1F81031C1F838357FF41FAFD2F8E43F9C
:1086900013F00F037FF419AFD2F8E82F02F0F002C5
:1086A000302A7FF454AF504A0320C1F8A0050524B6
:1086B00001203F21C2F81046C2F88806C2F81836D9
:1086C000C2F8141643E74FF08052484BD2F8040426
:1086D000C3F82005D2F80804C3F82405D2F80C0426
:1086E000C3F82805D2F81004C3F82C05D2F81404F6
:1086F000C3F83005D2F81804C3F83405D2F81C04C6
:10870000C3F84005D2F82004C3F84405D2F8240485
:10871000C3F84805D2F82804C3F84C05D2F82C0455
:10872000C3F85005D2F83004C3F85405D2F8340425
:10873000C3F86005D2F83804C3F86405D2F83C04E5
:10874000C3F86805D2F84004C3F86C05D2F84404B5
:1087500091F8E02FC3F87005062A7FF4B6AED1F881
:10876000E43F18077FF4B1AEFAE6214A0123C2F8CC
:108770000435D2F80034002BFBD04FF01023152124
:108780001B4AC3F80012D2F80034002BFBD04FF084
:1087900010231521164AC3F80412D2F80034002B16
:1087A000FBD000231249C2F80435D1F80034002B65
:1087B000FBD0BFF34F8F05490E4BCA6802F4E0624D
:1087C0001343CB60BFF34F8F00BFFDE700ED00E028
:1087D000A82A00200090D003001000400030014083
:1087E00000C007400DF0ADBA0050004000C000408E
:1087F00000E001400400FA054FF0A042044B1B5C6E
:10880000D2F80405D840C04300F00100704700BF13
:1088100044E30200044A115C01234FF0A0428B4064
:10882000C2F80C35704700BF44E30200044A115CF3
:1088300001234FF0A0428B40C2F80835704700BFBB
:1088400044E302004FF0A04310B44FF480204FF4F3
:1088500000344FF400214FF48012C3F80845C3F8E8
:108860000805C3F80815C3F808255DF8044B7047E0
:108870004FF0A04310B44FF480204FF400344FF475
:1088800000214FF48012C3F80C45C3F80C05C3F85F
:108890000C15C3F80C255DF8044B7047074B4FF0DF
:1088A000A041185CD1F804350122824022EA03007D
:1088B0001340C1F80805C1F80C35704744E30200C5
:1088C0000D2809D00E2809D00F2809D0102814BF70
:1088D0004FF0FF30032070470020704701207047A1
:1088E00002207047014B185C704700BF40E3020054
:1088F000C20710B41AD54FF0A04303224FF4003141
:10890000C3F844274FF48024C3F84827C3F84C2702
:10891000C3F85027C3F808154FF480124FF4002114
:10892000C3F80845C3F80815C3F8082583070AD516
:108930004FF0A0430C22C3F83427C3F83827C3F8FC
:108940003C27C3F840275DF8044B704710B568B961
:108950000E4CA368012262703BB1D3E900230020D2
:10896000A2609847A368002BF7D110BD0128FCD165
:10897000064C2369A070002BF7D0D3E90023012017
:10898000226198472369002BF7D110BD6032002087
:1089900070B910B5074CA368012262703BB1D3E9EE
:1089A00000230020A2609847A368002BF7D110BDD8
:1089B000704700BF6032002030B5012883B01DD061
:1089C000032806D018B9224B0122C3F8802003B037
:1089D00030BD204C00F0BEF800230DF107008DF8EB
:1089E0000730FEF7A7FFE368013BE360E5683DB3AE
:1089F0009DF80700FEF7C4FF03B030BD154C0023FF
:108A00000DF107008DF80730FEF794FF237853B17E
:108A1000E3689DF8070001221344E360A270FEF7AB
:108A2000AFFF03B030BD0C486360A3602361E36017
:108A300000F084F803F0B0FC30B101232370E7E7C5
:108A400000F09CF8A570D3E700F084F8F5E700BFCC
:108A500000E100E0603200204D89020010B50B4BB0
:108A60000B4C027890F808C053F8213054F82110CC
:108A7000446884B08DF80020C26801948DF808C065
:108A800003926846984704B010BD00BF7C320020B6
:108A90007832002030B50A4B0A4C53F8213054F894
:108AA0002110027885B0D0E901548DF80020C26809
:108AB00001958DF8084003926846984705B030BD8F
:108AC0007C32002078320020F0B5174B06784F7FBB
:108AD00043F82620154B14460A6943F82620144B08
:108AE0008E469F550546BEE80F0089B0EC46ACE8BF
:108AF0000F009EE80F008CE80F0004964FB1002C89
:108B00000C4A694608BF2246281D01F029F809B021
:108B1000F0BD002C084A694608BF224605F10C004A
:108B200000F0DAFD09B0F0BD7C3200207832002080
:108B3000743200205D8A0200958A0200044A13798B
:108B400023B9012110609180184670478520704735
:108B500080320020084B1A68D20706D40122E02197
:108B600083F80013C3F880211A604FF0804301227C
:108B7000C3F81825704700BF00E100E04FF08042C5
:108B80000123D360D2F81834DB03FBD4704700BF55
:108B900010B54FF0804382B0D3F8002162B10021BC
:108BA000164AC3F80011D3F8001150790091012141
:108BB000009CC3F80813A8B14FF08043D3F80421F8
:108BC000CAB10022C3F80421D3F804210192022182
:108BD0000A4A0198C3F808131368012002B0BDE8DF
:108BE000104018471368517198474FF08043D3F8ED
:108BF0000421002AE5D102B010BD00BF8032002060
:108C000030B51F4C94F8585083B0ADBB4FF0FF33D4
:108C10002946042204F15400C4E90C33C4E90E339C
:108C2000C4E91033C4E91233C4E90033C4E90233A0
:108C3000C4E90433C4E90633C4E90833C4E90A3398
:108C4000236504F049FA0F4A0F4B4021E02082F8D7
:108C50000603C3F87C51C2F880111160D3F87C215F
:108C6000019201984FF000420121284684F85810E3
:108C7000C3F8042303B030BD082003B030BD00BFEB
:108C80008832002000E100E000600040034B93F8D0
:108C90005800003818BF0120704700BF88320020FC
:108CA00070B5744B03EB000E9EF930C0BCF1000FA1
:108CB00055DA91F802C01CF0020FCCF3400541D107
:108CC0001C6A013400F0A9805C6A013400F0C080A5
:108CD0004FF0080E0C244FF00A0C53F82C600136AC
:108CE00041D00EF1030CA4452AD253F82C60013672
:108CF00039D00EF1040EA64522D21E69013630D0BD
:108D00005E69013600F096809E69013600F095801C
:108D1000DE69013600F09480082C11D01C6A013401
:108D200000F0A2805C6A013400F081809C6A01340A
:108D300000F09D80DC6A013408BF4FF00B0C12D0AC
:108D4000042070BD1C6801347DD05C68013400F0E3
:108D500086804FF0000E08244FF0020CBDE708207B
:108D600070BD4FF0040C1C1843F82C204FFA8CF205
:108D700084F83020002D56D091F802C01CF0040F6A
:108D800018D11CF0010F3ED14C784FF0A04500F5F2
:108D9000E076A40045F82640374EC50800F0070EDF
:108DA00016F805C0012404FA0EF444EA0C047455C4
:108DB00091F802C009781CF0020F1AD0930003F159
:108DC000804303F5C0430202D3F8100520F4473076
:108DD00020F44070C3F810050904D3F8100502F41C
:108DE000F85201F440310A430243C3F81025002031
:108DF00070BD083A43FA82F292F8503043EA811388
:108E000082F85030F3E7840004F1A044D4F800570E
:108E100025F00205C4F80057BEE74FF0080C1A62AF
:108E20008EF830C062469C448CF84800A4E74FF0AE
:108E3000090C98E74FF0050C95E74FF0060C92E708
:108E40004FF0070C8FE71A6000228EF8302093E76E
:108E50004FF0090C5A628EF830C06246E3E75A6060
:108E600001228EF8302087E74FF0080C7BE74FF0A7
:108E70000A0C78E788320020DC32002030B42B4C1A
:108E800004EB000C82B09CF93020072A1CDD224440
:108E900092F848309B09032B3ED0012B0CBF4FF4B6
:108EA00000334FF44033800000F1A040D0F8002799
:108EB00022F44032C0F80027D0F800271343C0F84E
:108EC000003702B030BC7047D3B2072BF9D89000FE
:108ED00000F1804000F5C04002F14003D0F8105589
:108EE0009B009BB203F1804345F00105C0F810558B
:108EF00003F5C043002001901860019B0029E0D0D9
:108F00009CF9303054F82330002BDAD00849012383
:108F10009340C1F80433D4E74FF0A043D3F81035A1
:108F2000C34003F0010302331B04BCE78832002076
:108F3000006000404FF0A043D3F8103523FA00F052
:108F400000F00100704700BF2DE9F04F87B0BE4A26
:108F500000230193D2F80011012900F016821E4669
:108F6000B94BD3F80421012A00F00082B64BD3F8A4
:108F70000821012A00F0EB81B34BD3F80C21012A20
:108F800000F0D681B04BD3F81021012A00F0C18146
:108F9000AD4BD3F81421012A00F0AC81AA4BD3F8D1
:108FA0001821012A00F09781A74BD3F81C21012A30
:108FB00009D0A54BD3F87C21012A00F0F38106BB30
:108FC00007B0BDE8F08FD3F804231206F1D50022D4
:108FD000C3F81C21D3F81C110491D3F87C11049818
:108FE000012946F080060CD1C3F87C21D3F87C21FE
:108FF00005924FF0A043059AD3F81035019346F03F
:109000000046924F00240125A30003F180432E4225
:1090100003F5C0430BD0D3F8100557F82420D3F83C
:109020001015C0F30420C1F3014102B1904701348F
:10903000082C4FEA4505E7D1002EC1DA0023834C06
:1090400002934FF0FF32012502AE94F950300392A3
:109050005F1C2FD0C3F3C20C0CF118020DEB0207FA
:1090600003F0070217F80C1C05FA02F211425FFA2E
:1090700083FE03F03F001DD023184FEA9E1193F9A1
:10908000303054F82330002B00F0FE80032900F02C
:10909000FE804FEA800C0CF1A04C17F8147CDCF831
:1090A00000E71740CEF3014E00F0C080BEF1020F82
:1090B00000F0C2814FF00108002794F95130581C8C
:1090C00031D0C3F3C20A0AF118020DEB020E03F00D
:1090D00007021EF80C1C05FA02F211425FFA83FC2B
:1090E00003F03F001FD023184FEA9C1B93F9303048
:1090F00054F82390B9F1000F00F0DA80BBF1030FB0
:1091000000F0DA80830003F1A0431EF814ECD3F8DA
:1091100000171EEA020FC1F3014C00F09980BCF168
:10912000020F00F0968194F95230591C30D0C3F3ED
:10913000C20A0AF118020DEB020903F0070219F83E
:109140000C1C05FA02F211425FFA83FC03F03F00A7
:109150001ED023184FEA9C1E93F9303054F8238018
:10916000B8F1000F00F09A80BEF1030F00F09A8072
:10917000830003F1A04319F8149CD3F8001719EAEF
:10918000020FC1F3014C72D0BCF1020F00F05A8102
:1091900094F953305A1C2ED0C3F3C20A0AF11802B4
:1091A0000DEB020903F0070219F80C1C05FA02F294
:1091B00011425FFA83FC03F03F001CD023184FEAF2
:1091C0009C1E93F9303054F82380B8F1000F79D009
:1091D000BEF1030F79D0830003F1A04319F8149C6A
:1091E000D3F8001719EA020FC1F3014C11D0BCF1FA
:1091F000020F00F0E780002F3FF4E2AE4FF0A043F3
:10920000019AD3F8103593423FF4DAAE029A0193F3
:109210001BE7BCF1030FEED1BEF1030F00F0D980C4
:10922000B8F1000FE7D07146C047E4E7BEF1030F85
:109230007FF440AF032900F013814FF00108002BA9
:109240003FF43BAF984738E7006000408832002089
:10925000BCF1030F7FF467AFBBF1030F00F0DD80BB
:10926000B9F1000F3FF45FAF5946C8475BE7BCF167
:10927000030F8DD1BEF1030F00F0BF80B8F1000FD6
:1092800086D07146C04783E703297FF413AF16F8F1
:109290000CE04EEA020E06F80CE0FAE6BEF1030F0F
:1092A0007FF476AF16F80A30134306F80A305FE70A
:1092B000BBF1030F7FF437AF16F80A30134306F8FB
:1092C0000A301FE7BEF1030F95D116F80A30134399
:1092D00006F80A307FE7D3F8042351067FF564AE21
:1092E0000022C3F81821D3F818310493049B46F0E8
:1092F000400659E6D3F8042390067FF54FAE0022CE
:10930000C3F81421D3F814310493049B46F02006CB
:1093100044E6D3F80423D4067FF53AAE0022C3F81E
:109320001021D3F810310493049B46F010062FE669
:10933000D3F8042315077FF525AE0022C3F80C21CE
:10934000D3F80C310493049B46F008061AE6D3F8D0
:10935000042357077FF510AE0022C3F80821D3F885
:1093600008310493049B46F0040605E6D3F8042371
:1093700092077FF5FBAD0022C3F80421D3F8043136
:109380000493049B46F00206F0E5D2F8046316F05D
:1093900001063FF4E5ADC2F80031D2F80031049384
:1093A000049BDDE50022C3F87C21D3F87C210592E3
:1093B0004FF0A043059AD3F810350193002E3FF4E7
:1093C0003DAE1CE6BEF1030F7FF42AAF4FF44031EF
:1093D00001E04FF40031D3F8002722F44032C3F803
:1093E0000027D3F800270A43C3F80027B8F1000F7D
:1093F0003FF404AF0321C04700E74FF40031D3F836
:10940000002722F44032C3F80027D3F800270137A1
:109410000A43FFB2C3F8002730E74FF40031D3F816
:10942000002722F44032C3F80027D3F800270A436C
:109430004746C3F8002713E7032922D04FF001085D
:109440000027FCE6BEF1030F7FF418AF4FF4403164
:10945000D5E7BBF1030F7FF403AF4FF44031DEE7F4
:109460004FF40037DCF8002722F44032CCF8002714
:10947000DCF800273A43CCF800274FF00208012718
:10948000DDE64FF44037EDE7014B1B68184700BF9E
:10949000E4320020114B98421DD110B582B0002358
:1094A0000DF107008DF807300C46FEF743FA0C4B20
:1094B0001A794AB99DF807001C6001221A71FEF75B
:1094C0005FFA002002B010BD9DF80700FEF758FAC1
:1094D000112002B010BD0020704700BF00200040E6
:1094E000E4320020034B984203D1034B00221A6060
:1094F0001A71704700200040E43200200000000094
:1095000030B5734AD2F8043399058BB06DD5D2F8D3
:109510002431002B69D00023C2F82431D2F8243141
:1095200003934FF401716B4B0398C2F8081393F83F
:10953000291009B901215160654902228DF81820CE
:10954000D1F88024C1F880249FED5F7B9969D868A9
:109550000790CDE9081283ED067BD3E9001206A837
:1095600090475B4AD2F81C31EBB15A4B186A5969E3
:1095700088426FD293F828009C6800F0FF0500280D
:1095800072D00020C2F81C01D2F81C210192019A6D
:10959000D3E901400022CDE907018DF818201968B0
:1095A0005A6106A8A0474A4AD2F84431DBB10021EB
:1095B000484BC2F84411D2F8440193F829100090A6
:1095C000009809B1012111609A6962B1D8685C6A9A
:1095D00000210122CDE9070499618DF8182006A821
:1095E000D3E9001290470BB030BD394AD2F80433AA
:1095F0005B07B6D5D2F80831002BB2D0354B99694C
:1096000000293FD00021C2F80811D2F808110491B6
:109610000499D868596AD2F8182542545A6A996947
:1096200001325A625A6A8A429BD1DA691968002A61
:1096300031D0D8685C6A1D6907909A6100200122C8
:109640000894D86158625C68DD608DF8182006A81F
:10965000A04786E70020C2F81C01D2F81C21019225
:10966000019A00299FD093E7C2F81C51D2F81C112F
:1096700002910299186A196A205C01311962C2F8D4
:109680001C0590E7C2F80811D2F80801059005986A
:10969000D2F81825C6E793F8292012B90C4A012000
:1096A00050600B4A4FF40170C2F80803586ADA6838
:1096B00000249C610124CDE907205B688DF81840E7
:1096C00006A898474DE700BF00000000000000001A
:1096D00000200040F03200202DE9F041634E077970
:1096E0002C2303FB076382B093F82A30002B40F051
:1096F000928005460C4600685D499046FFF7CAFE19
:10970000002840F084802368591C0CD04FF0A04101
:10971000012202FA03F3C1F80835236803F5E07368
:10972000032241F8232063685A1C06D003F5E07336
:109730004FF0A042002142F823102B68A269C3F821
:109740002425227D637D13432A68C2F86C35D4E951
:1097500000122B68C3F81425C3F80C15237D012BC8
:1097600062D02C2307FB03F3F218C2F804802269AD
:10977000F250B8F1000F32D02B68227F0021C3F8DD
:109780001C11D3F81C310093009B2B68C3F84411C3
:10979000D3F844310193019B2B683649C3F8041375
:1097A0002B6843F307335201002BD2B237DB03F1AE
:1097B000604303F5614383F80023296841F3C43310
:1097C00023F0604323F0030303F1604303F5614397
:1097D0000122C1F304318A40C3F880211A602B684A
:1097E00025490422C3F800252C2303FB07F73E4438
:1097F00007F110030022F26186F82920CA500B44B9
:1098000001215A6086F82A1002B0BDE8F0811120CB
:1098100002B0BDE8F081082002B0BDE8F081174930
:1098200003F00F03CA54C8E7A368591C06D003F518
:10983000E0734FF0A042002142F82310E3685A1C65
:109840000DD04FF0A041012202FA03F3C1F8083510
:10985000E36803F5E073032241F82320E3682A68F4
:10986000A168C2F80835C2F810157AE7F032002076
:109870000195020080000200F432002014ED00E0A7
:10988000F8B5036805792E4C0022C3F800252C2377
:1098900003FB05435B6883B103682A4AC3F80823C6
:1098A0000368294E43F307335A09203203F01F039C
:1098B000012101FA03F346F8223003684FF0FF322A
:1098C000D3F80CC5D3F81475D3F80815D3F8106580
:1098D000C3F81425C3F80C2503689445C3F808257C
:1098E000C3F8102506D00CF5E07C4FF0A04302220F
:1098F00043F82C207B1C06D007F5E0774FF0A043FF
:10990000022243F82720721C06D006F5E0764FF0BD
:10991000A043022243F826204B1C06D04FF0A04360
:1099200001F5E071022243F821200068FFF7DAFD1B
:109930002C2202FB0544002384F82A306360F8BD22
:10994000F03200208402020000E100E02DE9F04145
:10995000334C90F804E02C2303FB0E4384465869F3
:1099600084B000284ED11862996083F828005A61AB
:10997000DCF80020C2F81C01D2F81C210292029AE5
:10998000DCF8002001219160DCF800209D68C2F81D
:109990001C01D2F81C1101910199196A6E5C196AB7
:1099A00001311962C2F81C655A6812B104B0BDE8F1
:1099B000F0811A6A5E69DCF8001096421BD90746EE
:1099C00002E093F828200ABBD1F81C21002AF8D025
:1099D000C1F81C71D1F81C210392039A1A6A15F878
:1099E00002801A6A01321A62C1F81C851A6AB242F0
:1099F000EAD3DCF80010D1F81C31002BFBD0012396
:109A0000CB6004E0112004B0BDE8F0810F202C23CE
:109A100003FB0E4300225A6104B0BDE8F08100BF91
:109A2000F032002000000000F0B54B4BD3F82421A9
:109A300089B0002A49D00022C3F82421D3F8241188
:109A4000029102228DF810200299444AD3F8801422
:109A5000C3F880149FED3E7B0791D3F83C45D06856
:109A6000059082ED067BD2E900138DF8184004A81A
:109A70009847394BD3F8442152B1384A0021C3F8F2
:109A80004411D3F8444190690194019C002845D1C8
:109A9000314BD3F82021B2B1304A0020C3F8200165
:109AA000D3F8204151690094009C61B1D3F84C4532
:109AB0008DF81840D2E901318DF810000591506100
:109AC000116804A8984709B0F0BDD3F81011002917
:109AD000CFD0C3F81021D3F81011204C0391039973
:109AE000A169D3F83C058842C3D1E569E768A5615F
:109AF000D4E90016C0B205B3E261D3F8002222F027
:109B00002002C3F800222369E36001238DF81800C6
:109B1000059704A88DF81030B047AAE7D3F83C4564
:109B2000D068916101238DF810300590D2E90013BF
:109B30008DF8184004A89847AAE701238DF818006B
:109B40008DF81030059704A8B04792E7AFF3008076
:109B50000000000000000000002000402033002032
:109B60002DE9F04306796B4F06EBC60307EB830341
:109B700085B093F82030002B40F0A18004460D46BC
:109B8000006865499046FFF785FC002840F0938007
:109B90002B68591C4FEAC6090CD04FF0A041012296
:109BA00002FA03F3C1F808352B6803F5E0730322CA
:109BB00041F823206B685A1C06D003F5E0734FF080
:109BC000A042002142F823102368AA69C3F8242583
:109BD0002B7D6A7D1A432368C3F86C25D5E90031D3
:109BE0002268C2F80C35C2F814152B7D012B6FD0FA
:109BF00009EB060207EB8203C3F804802B6947F8E0
:109C00002230B8F1000F40D021682A7F0023C1F82C
:109C10001031D1F81011009100992168C1F820315C
:109C2000D1F82011019101992168C1F82431D1F8AE
:109C30002411029102992168C1F84431D1F84431CC
:109C40000393039B23683549C3F80413236843F344
:109C500007335201002BD2B235DB03F1604303F529
:109C6000614383F80023216841F3C43323F0604348
:109C700023F0030303F1604303F561430122C1F3C1
:109C800004318A40C3F880211A60B1444FEA890345
:109C90002468234907EB8907103300220825FA615D
:109CA000C4F80055CA500B4401215A6087F82010AF
:109CB00005B0BDE8F083112005B0BDE8F0830820B1
:109CC00005B0BDE8F083174903F00F03CA54CAE793
:109CD000AB68591C06D003F5E0734FF0A042002199
:109CE00042F82310EB685A1C0DD04FF0A04101221E
:109CF00002FA03F3C1F80835EB6803F5E0730322B9
:109D000041F82320EB682268A968C2F80835C2F838
:109D100010156DE720330020299A0200100302007D
:109D20002433002014ED00E0F8B505790368304CC9
:109D30000022C3F8002505EBC50304EB8303EE0006
:109D40005B6883B103682B4AC3F8082303682A4F72
:109D500043F307335A09203203F01F03012101FAAC
:109D600003F347F8223003684FF0FF32D3F80CE5D5
:109D7000D3F814C5D3F80815D3F81075C3F80C251B
:109D8000C3F8142503689645C3F80825C3F81025C1
:109D900006D00EF5E07E4FF0A043022243F82E20BD
:109DA000BCF1FF3F06D00CF5E07C4FF0A04302224F
:109DB00043F82C207A1C06D007F5E0774FF0A0433B
:109DC000022243F827204B1C06D001F5E0714FF02A
:109DD000A043022243F821202E4404EB86040068AD
:109DE000FFF780FB002384F820306360F8BD00BFDC
:109DF000203300201003020000E100E001F0604C7D
:109E0000BCF1005F2ED170B590F804E0214D0EEB4F
:109E1000CE0C05EB8C0C0346DCF8140082B04FEA44
:109E2000CE06002832D1CCF80810CCF814201C68DB
:109E3000C4F82001D4F820410194019C1C68C4F8A6
:109E40005801D4F858410094009C1C68C4F844158B
:109E5000C4F848251A6801219160DCF804201AB181
:109E600002B070BD102070471A68D2F82031D2F8C5
:109E700058010343F9D0764405EB860300284FF0E0
:109E8000000218BF0F205A6102B070BD112002B04D
:109E900070BD00BF203300200220FEF7FFBC00BFD2
:109EA0002DE9F04706460D46FEF70AFD032805D8C2
:109EB000012D04461AD0022D27D00DB1BDE8F08740
:109EC0001B48FDF7FDFC1B4B1B4A04EB44010B44F4
:109ED000125D9D78AA42F1D1002DEFD0174B1B687F
:109EE000002BEBD02846BDE8F0471847114F00EB98
:109EF0004003FA18FD5C53784FEA40085BB9A04470
:109F000047440D4BBA781A55E6E70A4B00EB40047C
:109F100023445D78E0E7DFF8289005484A464FF48F
:109F20000041FDF777FC0028E9D189F80060E6E7F9
:109F30004C3300206C330020443300207833002061
:109F40004833002010B50078FEF7BAFC03280BD880
:109F5000064B00EB40000344587828B1044B1B68C3
:109F600013B1BDE81040184710BD00BF6C3300208E
:109F70007833002038B5B64D2B7804466BB1B54B1D
:109F80001B7800202870002B4CD0FEF74FFC0120DE
:109F9000FEF74CFC0320FEF749FC172C61D8DFE8E4
:109FA00014F0F40063006300AA00B700C300D500FA
:109FB000090150004400500044008F0018001800B0
:109FC000180018001800E30095007A0010015C00EA
:109FD0005C00A148FDF774FCD4F11104054600F0C3
:109FE0002081002840F01D81012C14D0C82303FBE0
:109FF00004F429464FF400434FF4FA70C4FB030104
:10A000004FF47A72002303F039FA2A460146924847
:10A01000FDF700FC05460220FEF7FCFB8D4B0122FC
:10A020001A701FE0FEF70EFCB7E701202870FEF75C
:10A0300035FCBDE83840894800224FF48041FDF7E7
:10A04000E9BB01202870FEF729FCBDE838408348B1
:10A05000002240F6CD41FDF7DDBBFEF709FC804B49
:10A060001C700025284638BD0020FEF7C5FB0028DF
:10A0700040F0BD80FEF7CEFB43F2333141F69A1338
:10A08000022C08BF1946764B1C70BDE83840734857
:10A090000022FDF7BFBB6F4B1B78002B00F0CB807D
:10A0A0000020FEF7C3FB0120FEF7C0FB0320FEF7F4
:10A0B000BDFB0120FEF7AEFB694B14221A70D0E7FE
:10A0C000FEF7D6FB664B0C221A70CAE7614B1B7871
:10A0D000002B00F0AD800020FEF7A8FB0120FEF76A
:10A0E000A5FB0320FEF7A2FB0020FEF793FB5C4BD1
:10A0F00013221A70B5E70020FEF77EFB002840F01F
:10A100008A80FEF787FB41F69A11554B0324BBE783
:10A110000020FEF771FB002877D1FEF77BFB43F2AE
:10A1200033314F4B0424AFE70020FEF765FB0028D6
:10A1300067D1FEF76FFB4A4B484805241C70BDE809
:10A140003840002241F69A11FDF764BB0020FEF76B
:10A15000A5FB434B414806241C70BDE83840002253
:10A1600040F6CD41FDF756BB3A4B1B78002B6BD028
:10A170000020FEF75BFB0120FEF758FB0320FEF7F3
:10A1800055FB374B12221A706BE7324B1B78002BB2
:10A1900057D00020FEF74AFB0120FEF747FB0320C3
:10A1A000FEF744FB2D48FDF78BFB2D4B00220546A7
:10A1B0001A7057E70020FEF72DFB294B07221A7073
:10A1C0004FE7244B1B78CBB30020FEF72FFB012079
:10A1D000FEF72CFB0320FEF729FB0020FEF71AFBFD
:10A1E0000120FEF717FB1E4B15221A7039E70020DD
:10A1F000FEF71CFB022C4EF2666118BF4FF40031D3
:10A2000041E70020FEF712FB95E70020FEF70EFB6A
:10A210004FF4003185E70020FEF708FB46F2666147
:10A2200073E70220FEF702FB0A4B00221A7019E7BF
:10A23000FEF708FB58E7FEF705FB3AE7FEF702FBDF
:10A24000CBE7FEF7FFFAADE7FEF7FCFA99E700BFB0
:10A25000C4330020BC3300207C3300209C3300201A
:10A26000C5330020044B1B68DB0700D47047034B49
:10A270001878FFF77FBE00BFC0330020C533002031
:10A28000044B1B6813F0010301D118467047FFF718
:10A2900071BE00BFC033002038B5254B254A196078
:10A2A0008307106000F0010402D474BB204638BD5F
:10A2B000214B0E210F22102019701121DA70987194
:10A2C00059721E4840F266620421FCF77FFF054682
:10A2D00018B1ACB92C46204638BDFCF7CFFF054677
:10A2E0000028F6D12946164A1648FDF781FA054698
:10A2F000002CEFD00120FEF7FBFA4DB12C46EAE727
:10A300000120FEF7F5FA2C46E5E70120FEF7F0FA0A
:10A310000D4A0E480021FDF76BFA04460028C5D10E
:10A32000BDE838400A4A0B480121FDF761BA00BF79
:10A3300078330020C03300206C33002048E3020053
:10A34000459F020068E3020065A2020070E302007C
:10A35000999E02006CE3020003280DD8012A0DD05B
:10A3600001291BD002290FD031B90F4B00EB40005F
:10A3700003449A70002070470720704701290AD0D3
:10A3800002294FF00002EFD1074B00EB40000344DD
:10A3900000205A70704700F10E02D2B2024B00EB5F
:10A3A00040001A54E6E700BF6C330020032801D9AF
:10A3B0000620704708B5FEF795FA830003F1A04325
:10A3C0000020D3F8002722F44032C3F80027D3F846
:10A3D000002742F44032C3F8002708BD10B50388B7
:10A3E000102B16D0112B00D010BD254B186801384A
:10A3F00018600028F8D101220221FFF7ADFF70B1EB
:10A4000007280CD01F4B1B68002BEDD0BDE8104077
:10A4100018471B4C2168A1B10131216010BD0722F2
:10A4200002210120FFF798FF08B10728EAD1002197
:10A430000A220846FFF790FF0028D5D00728D3D07E
:10A44000E0E701220846FFF787FF38B1072805D06B
:10A450000C4B1B6803B198472168DDE707220221F6
:10A460000120FFF779FF08B10728F1D1042202216A
:10A470000020FFF771FF0028EED00728ECD0E7E7B7
:10A48000C8330020CC33002008B50020FFF78EFF32
:10A4900010B1062800D008BD0120FFF787FF002873
:10A4A000F9D0062808BF002008BD00BF76DF70473E
:10A4B0007ADF70477CDF70477FDF70478FDF704740
:10A4C000B1DF704762DF704733DF7047FCF7ECBEE7
:10A4D00030B50446384983B001F0C2FD2388212BF2
:10A4E0002AD80F2B26D9103B112B23D8DFE803F0F5
:10A4F0003409224B2222222222222222222222221A
:10A5000022552E4B2E4D2F49ED1AED082D0445F006
:10A51000030045F00205FCF773F9227A2A49284620
:10A52000FCF74CFA29492846FCF76AF9284B4FF604
:10A53000FF721A8003B030BD522BFBD1244A002396
:10A54000108819461A46FFF7BBFF0028F2D003B067
:10A55000BDE83040FCF7A8BE184B19481D49C01A89
:10A56000C008000440F00300FCF74AF90720FFF799
:10A5700087FEF0B9164BA1881748198001F0E8FC56
:10A580000028D7D0E3E7124A0023108885211A4615
:10A59000FFF792FF0028CDD0D9E70023A088ADF8BF
:10A5A000043001A9FFF78AFF0028C3D0FCF77CFE26
:10A5B000C0E7FCF779FEDDE7B82A002078E8020062
:10A5C000A8E80200D8DC0200E8DC020004DD02009A
:10A5D000B42A0020CCDC02006C36002008B50378D9
:10A5E00003B108BD054B3B211888FFF75FFF00282A
:10A5F000F7D0BDE80840FCF757BE00BFB42A0020E2
:10A600002DE9F041057875BB184F868A97F80080D0
:10A6100001691F2E044628BF1F26B8F1000F18D16C
:10A62000134D3246284602F0A9FD124A05F806806D
:10A6300001233B701370104A104823691049801A97
:10A64000C0080004324640F00300BDE8F041FCF7CA
:10A650009BBADFF830803246404602F08FFD08F8A2
:10A6600006503D70E7E7BDE8F08100BFAC2A00204E
:10A67000D03300201034002078E80200A8E802005F
:10A6800024DD0200F03300200C4B4A881B889A42DC
:10A6900000D070470A8840F677239A42F9D1084AD9
:10A6A00008488B880849801A033BC0089BB2000405
:10A6B0001A4640F00300FCF767BA00BFB42A002036
:10A6C00078E80200A8E802003CDD0200FCF7ECBDDF
:10A6D00008B558B1032800D008BD0220FFF7D0FD0F
:10A6E0000028F9D0BDE80840FCF7DEBDFFF7C8FD43
:10A6F00038B9FFF7C9FE50B9FFF7E6FE0028F1D1DF
:10A7000008BDFCF7D1FDFFF7BFFE0028F4D0FCF731
:10A71000CBFDF1E708B50B490B4801F0EFFA28B97A
:10A720000948F72101F002FB40B908BDFCF7BCFD68
:10A730000548F72101F0FAFA0028F6D0BDE80840F4
:10A74000FCF7B2BD89A602007836002070B54FF440
:10A750000041AEB00020FBF7BBFE002840F0D680E1
:10A76000FBF798FEFCF7F4FF002840F0F980FDF7B6
:10A7700049FE002840F0F18000210320FFF78CFD06
:10A78000002840F0E78001F0FDFD002840F0DF8068
:10A7900003AC002321460120039301F055FE00285D
:10A7A00040F0D280204601F02BFF002840F0C98005
:10A7B00011236D488DF8083002F022FC6A4982B2FC
:10A7C00002A8FFF777FE002840F0B8800822002199
:10A7D000204602F081FC654A4FF0C8732046CDE95F
:10A7E0000323FFF765FE002840F0A580FFF792FFE6
:10A7F0005F4B002202920FCB84E80F000DF10301A2
:10A800002046FFF75FFE002840F09280594B5A48DF
:10A81000029302A901F08AFB002840F086800422FE
:10A8200000210DEB020002F057FC544B54480193F9
:10A8300001A901F0A9FC002874D1AC220021204616
:10A8400002F04AFC022001234E498DF80C004FF41F
:10A85000A0604D4AADF80E004025ADF85830179174
:10A860008DF8883049482C9244F250632146CDE956
:10A87000255300F0A9FD002851D14448012100F0E2
:10A880009FFD1C220021204602F026FC4049414A3F
:10A8900020464FF4702400234FF420350594032400
:10A8A000CDE90335CDE908128DF81840ADF81A301E
:10A8B0008DF81C3000F090FF70BB01F019FF0020F4
:10A8C00001F082FF002001F07FFF00223248114694
:10A8D00001F0D0FF2D48032100F000FEC8B92F4C35
:10A8E0002F4E237800253BB9FBF752FE0028FBD101
:10A8F00020BF2378002BF7D0002001F065FF002255
:10A900001146304601F0B6FF2570EDE7FCF7CCFCB0
:10A9100026E7FCF7C9FCE2E7FCF7C6FCCDE7FCF74D
:10A92000C3FCAAE7FCF7C0FC87E7FCF7BDFC76E7B1
:10A93000FCF7BAFC6AE7FCF7B7FC57E7FCF7B4FC96
:10A9400044E7FCF7B1FC33E7FCF7AEFC2AE7FCF781
:10A95000ABFC1DE7FCF7A8FC15E7FCF7A5FC0BE733
:10A96000FCF7A2FC03E700BF58DD020010003C002A
:10A9700074E30200CDA402006C36002001A60200A0
:10A98000B82A0020B02A0020D1A6020014340020EA
:10A99000DDA50200CDA6020068DD02001034002013
:10A9A000F03300202DE9F04FDFF8789100EB4006FE
:10A9B00009EBC60683B0D6F82CA0BAF1010F804689
:10A9C0008B4617464FEA400547D0BAF1020F10D028
:10A9D000BAF1000F73D1B36A746AA3429CBF326AA2
:10A9E0009B18013B1B1B9F4274D9504603B0BDE826
:10A9F000F08F00F1010808EB4808756A4FEAC808B3
:10AA00004FF0000AB36A346AAB4203F1FF329CBFD5
:10AA10001B1903F1FF33A4EB05048CBF531B5B1B15
:10AA200009EB0802BC4228BF3C469C42506828BF44
:10AA30001C4659462844224602F0A0FB336A2544AE
:10AA40009D4208BF00253F1BA244A3447562002F0E
:10AA5000D8D1504603B0BDE8F08FD6E90834B26AC9
:10AA6000A24298BF02EB030A00F1010694BF0AF16B
:10AA7000FF3A02F1FF3A06EB4606AAEB040A09EB9D
:10AA8000C606BA4528BFBA4670681F1BBA4520449F
:10AA90001BD33A46019302F071FB019B7068E41AE4
:10AAA00054440BEB0701224602F068FB454409EBD6
:10AAB000C5095046C9F8244003B0BDE8F08F4FF0F7
:10AAC000000A504603B0BDE8F08F524602F056FB34
:10AAD0005444EBE72B18461C09EBC30306EB460670
:10AAE000D3F820A009EBC606AAEB040270689742CF
:10AAF00020443C4411D3019202F040FB019A70685B
:10AB0000A4EB0A040BEB0201224602F037FB45449A
:10AB100009EBC505BA466C6267E73A4602F02EFBC0
:10AB2000F5E700BFA038002038B5134A134C14488D
:10AB300014499FED0F7BC4E906204FF400700023F9
:10AB4000C4E9122120621049A3621025E01D63624E
:10AB5000E362A3656365E36584ED047B256502F02C
:10AB6000BDF90A49204602F0B9F92023A37138BD86
:10AB7000020000000200000074DD0200A038002086
:10AB8000A03600209036002080DD020084DD020027
:10AB90006DDF704779DF70477DDF704764DF704796
:10ABA0002DE9F04F85B098460E9D0388BDF83C9086
:10ABB00016462A880192002B3FD0002704468A4679
:10ABC000BB4604E022880BF1010B5A452BDD61687E
:10ABD00051F82B00039000220DF10B0103A8FFF7A1
:10ABE000DDFF58BB9DF80B20B242EBD12A88501CE8
:10ABF00002EB060C0DF10B0180B20CF1020E07B353
:10AC0000CC4528DC424403A8FFF7C8FFB0B9298827
:10AC10009DF80B200A442A8022880BF1010B5A452B
:10AC20004FF00107D3DC47B12B88019A013B9B1AF7
:10AC30009BB2FF2B0FD808F80230002005B0BDE80A
:10AC4000F08FCE4507DC288008F800A02A88013262
:10AC500092B22A80D6E70C2005B0BDE8F08F00BF85
:10AC60002DE9F04700231788138090F82D3086B027
:10AC7000144606460D46002B40F0C980B278002AE3
:10AC800040F0F680F278A2B1D91CB94200F2878177
:10AC90000221E954238801210B449BB22380E9540B
:10ACA00023880B449BB22380EA5423880B449BB235
:10ACB00023807268AAB192F90010DA1CBA4200F23D
:10ACC0006E810222EA54238801339BB20A22238038
:10ACD000EA54238801339BB22380E954238801334B
:10ACE00023803389002B40F0E580338A002B40F02D
:10ACF000FB80338B002B40F09481336A002B42D0D1
:10AD00002088821DBA4200F24A811A88052A40F240
:10AD100082816FF4486802EB080189B24FF27D3CF2
:10AD2000614540F278815988052940F274816FF4B9
:10AD3000486E8E441FFA8EFEE64540F26C814FF657
:10AD4000FF7C624502D08A4200F2658105222A54C6
:10AD50002288013292B212212280A9542288013223
:10AD600092B222801988A9542A44090A5170228873
:10AD7000023292B222805B88AB542A441B0A537081
:10AD8000238802332380736A002B31D09988B4F86A
:10AD900000C0881C0CF102020244BA4200F2FF809B
:10ADA000FE2800F2FC80033105F80C1022880132E5
:10ADB00092B2FF212280A9542288013292B22280CD
:10ADC0001988A9542A44090A51702088023080B297
:10ADD00020809A8862B199680393002900F01B8152
:10ADE000284402F0CBF9039B9A88238813442380DC
:10ADF00096F82C30002B40F091803378002B40F0F7
:10AE0000D4804FF00008404606B0BDE8F087082F18
:10AE100040F2C58004A8FFF7BBFE80460028F2D1AF
:10AE200023880822EA54238801339BB21B22238003
:10AE3000EA542088013080B2062220800DF11101F1
:10AE4000284402F09BF923889DF8102006339BB21A
:10AE5000012A88BF0122238094BF05F80380EA54A9
:10AE6000238801339BB22380B278002A3FF40AAFD3
:10AE70000433BB4200F2938004A8FFF78BFE8046A8
:10AE80000028C0D123880322EA54238801339BB2CF
:10AE900019222380EA542388BDF8102001339BB285
:10AEA0002380EA542B44120A5A70238802339BB23F
:10AEB0002380E7E6022206F10809CDE900472B4688
:10AEC00011464846FFF76CFE804600289BD1CDE92D
:10AED000004748462B4610220621FFF761FE8046B8
:10AEE00000283FF402AF8EE706F11009CDE90047D4
:10AEF0002B46022203214846FFF752FE80460028D7
:10AF000081D1CDE9004748462B4610220721FFF7A3
:10AF100047FE804600283FF4ECAE74E7B26A002A90
:10AF200079D04FF000084FF0160A2EE02388E8543D
:10AF3000238801339BB2238005F803A023880133C3
:10AF40009BB2238032F82120EA542B44120A5A7013
:10AF50002088023080B22080B9F80420284452B101
:10AF6000D9F80810002956D002F008F9B9F80420E1
:10AF700023881344238096F82C2008F101085FFAF7
:10AF800088F39A427FF639AFB26A08EB480102EBC8
:10AF90008109B9F80430D81C0233FE2BC6D94FF012
:10AFA0000C08404606B0BDE8F0873288012A32D04E
:10AFB0002288901CB842F2D8012B04D17378023356
:10AFC00013449F42EBD3023FBF1ABFB2284404A9E7
:10AFD000ADF81070FFF7E0FD804600287FF413AF56
:10AFE0003278BDF81030022A36D0717899423CD3BD
:10AFF0009F4233D2012A3AD03B4608212288581C6E
:10B00000A8542288013292B22280A95422880132A7
:10B0100013442380F5E64FF00708404606B0BDE82C
:10B02000F08706F11809CDE900472B4602221421CA
:10B030004846FFF7B5FD804600287FF4E4AECDE931
:10B04000004748462B4610221521FFF7A9FD8046F0
:10B0500000283FF452AED6E69F4203D30921FE2BCF
:10B06000CCD99CE73B460821F9E7012AFAD18F4267
:10B07000C2D30B460821F2E720B34378934222D093
:10B0800071B34FF0000C00B5634601E0994216D948
:10B0900010F80CC00CF1010C63449BB200EB030EE2
:10B0A0009C469EF801E09645F0D1994207D9C25CD2
:10B0B0000233012A9BB202D018445DF804FB002041
:10B0C0005DF804FB70474FF0000C6145634607D9FB
:10B0D00010F80C200233012A9BB201D018447047AB
:10B0E0000020704772DF704773DF704770B5044609
:10B0F00000F24A2681700D4607220021304601F0F9
:10B10000EBFFE38813B1A378012B69D0E379002B1F
:10B1100063D194F84B32002B75D194F84C32002B4C
:10B1200071D194F84D32002B6DD194F84E32002B32
:10B1300069D194F84F32002B65D194F85032003B1E
:10B1400018BF0123013D032D00F23681DFE805F031
:10B150000206090CA279002A40F00581E279002A52
:10B1600053D1237A002B67D1637A002B52D1A3707D
:10B17000002384F8533204F13C05182200212846AC
:10B1800001F0AAFFE26A0123511E994284F83C3083
:10B1900030D994F8242084F8513082B11A46A3782B
:10B1A00084F85220002184F85010042B00F2FA8019
:10B1B000DFE813F048005200AE00B000E300A378CF
:10B1C000002284F85020042B00F2EC80DFE813F01A
:10B1D0003A0044006300DA007300A378022B98D190
:10B1E000636B002B00F0E580012284F851220820D7
:10B1F00098478EE794F8243084F85120002BDED055
:10B2000094F82820CBE701239CE7002BA9D0022348
:10B21000A370ADE7626B0423A370002AA8D0637902
:10B22000002BA5D094F85232002BA1D10123A4F811
:10B230005332072090479EE7626B0323A370002AD6
:10B24000EDD195E7002384F83130636B13B194F8A6
:10B2500031009847002070BD00230122C4E910632B
:10B2600084F83120C4F844320222802384F83C2040
:10B27000A4F8483000212A4604F15400FFF732FFB9
:10B280000028E8D194F8301094F85400FFF72CFF10
:10B290000028DAD070BD0323022284F8312084F81C
:10B2A0003C302269E368A4F848200022C4E9106316
:10B2B000C4F84422DEE7E169228C61640121A4F82C
:10B2C0004820627984F83C10002A6ED094F852220B
:10B2D000002A6AD194F85422002A66D00223B4F8D6
:10B2E0003812D4F8340284F850300122FFF7C4FE3B
:10B2F00008B10423037004F50D762A46314604F1A3
:10B300005400FFF7EFFEA378002848D1062242E060
:10B310000723C1E7D4E90512A4F848200622616496
:10B3200084F83C2062799AB394F8522282BB94F854
:10B3300054226AB30223B4F83812D4F8340284F8E1
:10B3400050300122FFF798FE08B10423037004F582
:10B350000D762A46314604F15400FFF7C3FEA37868
:10B36000E8B9052217E094F82420002A7FF4F6AE0D
:10B37000002B3FF4F6AE0123F9E6E1696164228C0B
:10B3800006219CE7D4E905126164A4F84820C9E7C6
:10B39000032204F50D7684F83120C4F84462002BB2
:10B3A0003FF453AFD4F8441265E7042204F50D7658
:10B3B000F1E784F85132ACE60023A370D8E600BF71
:10B3C00080F83010704700BF002900F083802DE91D
:10B3D000F041044600287FD091F87A300D46002BCA
:10B3E0006ED1D5F8A030042B6ED0D5F89C30042B4C
:10B3F0006AD00027A77005F1780EBEE80F0004F1AF
:10B40000040CACE80F00BEE80F00ACE80F009EE8AB
:10B4100007008CE8070084F83070D5F8A430636327
:10B42000D5F8A830A3634FF6FF7804F50D763946BA
:10B430000722C4F84462A4F8488204F24A2001F0CA
:10B440004BFE2378002B42D094F82430002B0CBF05
:10B450001F23EE2304F15501C4F83412A4F8383246
:10B4600004F50E722846FFF7FBFB70BB94F82430FE
:10B47000002B0CBF1F23EE2304F24311C4F83C122F
:10B48000A4F8403204F5107205F13C00FFF7E8FB28
:10B49000D8B9D4E905230125A4F848304FF48073C6
:10B4A00062642064014684F83C5004F13C0204F1DB
:10B4B0005400A4F85030FFF715FE30B9257004E0B1
:10B4C00091F89830002B8CD00720BDE8F08184F8EB
:10B4D0005480B9E70E2070470E20F6E703780BB1D1
:10B4E000FFF704BE0820704710B50388112B0C46E7
:10B4F00007D0262B1ED0102B02D1C37B012B30D0BE
:10B5000010BD002381F852328288B1F848329A4245
:10B51000F6D10B79002BF3D10B7833B30121204600
:10B52000FFF7E4FD0028EBD0A36B002BE8D0BDE8CB
:10B5300010401847037A013B012BE1D80B7889783A
:10B540009BB10B4B0131A3FB012303F4FE7202EB11
:10B550009303C91AC9B22046FFF7C8FD0028E3D1FA
:10B5600010BD8388A1F8483210BD0820DCE700BF79
:10B57000CDCCCCCC704700BF75DF704776DF70470D
:10B580007ADF70477BDF704770B51D4D2B8884B222
:10B59000A34282B011D11B4E297A327B91420ED345
:10B5A000337C00222A72F3B9736933B100228DF81B
:10B5B0000420ADF8064001A8984702B070BD05F11F
:10B5C0000A011846FFF7D8FF40B11128F5D0B3693A
:10B5D000002BF2D002B0BDE8704018472B7A01333F
:10B5E0002B7202B070BD3B212046FFF7C7FF30F041
:10B5F0000803D9D0B369002BD6D09847D4E700BF51
:10B600003C390020203900202DE9F0410288122A1F
:10B6100082B0034634D016D8102A5AD0112A0FD13E
:10B620006A4C828823889A420AD16068FCF748F9FC
:10B6300018B1674B9B6903B198474FF6FF7323809E
:10B6400002B0BDE8F081502AFAD1614DC188EA8983
:10B650009142F5D1028A022AF2D15C4C8288268876
:10B660009642EDD1123000F0C1F9002800F0988028
:10B67000637A002B40F09B80D5E9013132466AE0C5
:10B68000524C828821889142DAD140896689B4F887
:10B690000CC0E589864259D8844557D340F2F31649
:10B6A000B5429B8994BF681BA81B98424ED835446D
:10B6B0009D424BD3464B5B694FF480722281002B35
:10B6C000BED001228DF80420ADF8061001A89847DD
:10B6D000B6E790F80FC08288BCF1010FB0D13B4CA7
:10B6E00020884FF6FF71884253D13A4E384D228060
:10B6F00003CEC4F80A00C4F80E10588A6689B4F85C
:10B700000C80E189EF894FF0000E864284F808E052
:10B7100033D8804531D340F2F316B1429B8A94BFAF
:10B72000481A881B984228D83144994225D384F876
:10B7300009C0002F84D16B69002B81D001218DF8C5
:10B740000410ADF8062001A8984779E7204D0021A4
:10B7500061726B68A968207A002808BF1946606882
:10B76000FCF758F800283FF46BAFAB69002B3FF4AF
:10B7700067AF02B0BDE8F041184784F809E0002F38
:10B780007FF45EAF69686068FCF744F80028ECD18C
:10B7900056E70F4B9B69002B3FF452AF0420E8E7BC
:10B7A0006068FCF78DF800283FF44AAFDDE76B696D
:10B7B00000222272002B3FF443AF01228DF80420B7
:10B7C000ADF8066001A898473AE700BF3C39002071
:10B7D000203900201839002070B3F8B58646076874
:10B7E000164E174D0446BEE80F00B446ACE80F00F5
:10B7F0009EE8070035608CE80700BFB13846FFF7C8
:10B80000BFFE90B923681868596803C50D4B0E4AEE
:10B8100018464FF6FF7440F8042F00210B4A1C8095
:10B82000FBF7E6FF002818BF0320F8BD2846FFF706
:10B83000A9FE0028EAD0F8BD0E207047203900206C
:10B84000183900203C3900205039002089B5020009
:10B850002DE9F04F0388B0F804A0112B99B05AD00D
:10B860001A2B814645D0102B40D13B4A9368DB43CD
:10B87000009351686846FCF7D3F8009B0193019B45
:10B8800073B300273C46214601A8FCF7A9F828B16C
:10B8900018AB03EB4703013723F8284C0134142C71
:10B8A000F1D10D970DAD0FCD02AC0FC40FCD0FC46C
:10B8B00095E8070084E8070097B1284E0DF10A0BC0
:10B8C0004FF000083BF8025F254C2046294604341F
:10B8D000FCF77AF8A642F8D108F10108B845F1D191
:10B8E000BAF1130F1ED90420FBF7DEFC19B0BDE836
:10B8F000F08F037A1B481F2B4FEA1314514622D9AD
:10B90000FCF756F8022C1848514606D019B0BDE88D
:10B91000F04FFCF74DB81548514619B0BDE8F04F4F
:10B92000FCF752B811485146FCF742F80C48514612
:10B93000FCF73EF899F80F30012BD7D00C48514650
:10B94000FCF736F8D2E7FCF73FF80748514619B044
:10B95000BDE8F04FFCF738B870390020E839002016
:10B960007439002080390020843900207839002083
:10B970007C390020132801D91420704710B50446E3
:10B9800021460448FCF72CF808B1204610BD1420CD
:10B9900010BD00BF743900201AB3002370B50446EF
:10B9A00015461360B8B10368ABB1C38813F0030642
:10B9B0000FD10846FFF7DEFFC0B214280FD023795D
:10B9C00083420AD9E288236800FB02332B603046A9
:10B9D00070BD072070BD0E2070BD042070BD052015
:10B9E00070BD0E20704700BFAADF7047008800F0CE
:10B9F00001007047F0B58B7891B0012B38BF01235F
:10BA00000C468DF80E3005460B88ADF80C30164606
:10BA100000210322684601F05FFB637C0022013BAA
:10BA20008DF80020042B09D8DFE813F0CF00D300F5
:10BA3000D7000500DB0012238DF80030A37C002224
:10BA4000013B8DF80120042B09D8DFE813F0CE006C
:10BA5000D200D6000500BA0012238DF80130237DF4
:10BA6000217B013303F0030341EA4301E37B41EA15
:10BA7000C301237C41EA03119DF8023001F01F014C
:10BA800023F01F0319438DF802101C22002109A87E
:10BA900001F022FB637B13F0300F71D1637B8DF8D3
:10BAA00024301422A37B8DF82530002104A801F056
:10BAB00013FBA288A368ADF81C2003AACDF814D00C
:10BAC00004921BB10893E388ADF81830A369002BEA
:10BAD00034D001AF03220021384601F0FDFAA269FB
