:020000022000DC
:1060000000000120F9620200216302002363020004
:1060100025630200276302002963020000000000DC
:106020000000000000000000000000002B630200E0
:106030002D630200000000002F63020031630200A4
:106040003589020033630200E58E020071C202004E
:106050003363020033630200A58902003363020048
:1060600033630200336302003363020033630200D0
:1060700033630200336302003363020033630200C0
:1060800033630200F97302003363020033630200DA
:106090009974020033630200BDB80200336302004A
:1060A0003363020033630200336302003363020090
:1060B00033630200336302000000000000000000B0
:1060C0003363020033630200336302003363020070
:1060D00033630200336302003363020000000000F8
:1060E00000000000000000000000000000000000B0
:1060F00000000000000000000000000000000000A0
:10610000000000000000000000000000000000008F
:10611000000000000000000000000000000000007F
:10612000000000000000000000000000000000006F
:10613000000000000000000000000000000000005F
:10614000000000000000000000000000000000004F
:10615000000000000000000000000000000000003F
:10616000000000000000000000000000000000002F
:10617000000000000000000000000000000000001F
:10618000000000000000000000000000000000000F
:1061900000000000000000000000000000000000FF
:1061A00000000000000000000000000000000000EF
:1061B00000000000000000000000000000000000DF
:1061C00000000000000000000000000000000000CF
:1061D00000000000000000000000000000000000BF
:1061E00000000000000000000000000000000000AF
:1061F000000000000000000000000000000000009F
:106200000348044B834202D0034B03B11847704745
:10621000302D0020302D0020000000000548064BE6
:106220001B1AD90F01EBA301491002D0034B03B194
:1062300018477047302D0020302D0020000000004E
:1062400010B5064C237843B9FFF7DAFF044B13B1BE
:106250000448AFF300800123237010BD302D0020CF
:106260000000000058F7020008B5044B1BB10449B8
:106270000448AFF30080BDE80840CFE7000000000D
:10628000342D002058F70200A3F5803A704700BF74
:10629000154B002B08BF114B9D46FFF7F5FF002162
:1062A0008B460F461148124A121A07F075F80C4B2C
:1062B000002B00D098470B4B002B00D098470020B4
:1062C000002104000D000B4807F064F906F0B4FF4C
:1062D0002000290003F034FD07F04AF9000008000F
:1062E000000000000000000000000120302D002010
:1062F000543B002011D702000649074A074B9B1A5E
:1063000003DD043BC858D050FBDC01F0F7FFFFF77A
:10631000BFFF000008F90200E0290020302D002016
:10632000FEE7FEE7FEE7FEE7FEE7FEE7FEE7FEE745
:10633000FEE7FEE7F0B595B0084600240E46174686
:106340001D4601F0FDFE1A990D912346082205A96C
:106350003046CDE908750A948DF82C400C9401F074
:1063600053FFDDE906219DF814308DF81140CDE989
:10637000021203F00302012A28D0022A04D0304678
:1063800001F0E2FE15B0F0BDBDF81650C3F3C20334
:10639000C5F389158DF810300827082D2C4628BF25
:1063A00008243B4622460EA9304601F02DFF2D1B46
:1063B00008AB02AA21460EA8274400F05DFF002D7D
:1063C000EBD1304601F0C0FE15B0F0BDBDF81410A1
:1063D0000598C1F38312C3F3C203C0F395258DF86A
:1063E0001030C1F3831430460EA99200082301F047
:1063F0000BFF08AB0093224602AB0EA9284600F023
:10640000C5FE304601F0A0FE15B0F0BD08B506F09F
:10641000B3FD0448042100F035FE034B01225A71FC
:1064200008BD00BFF0F80200E029002000000000D5
:106430009FED0D7B0E4B0F4810B50022FF21C3F8D6
:10644000182483ED007B9960C3F8142483F820247A
:1064500001F028FE044610B9074801F009FF204664
:1064600010BD00BFAFF3008000000000000000007E
:10647000502D002094F80200E4F3020030B499B1EA
:106480000D490E4D491BC90813D00D4C002302E0E5
:10649000013399420AD034F823208242F8D11846B9
:1064A00055F8300030BC7047044DF9E7002030BC8F
:1064B00070470846F6E700BF94F8020014F802009F
:1064C000302D0020094B013903EBC00303290BD801
:1064D000DFE801F00402080604207047022070473C
:1064E00058797047187970470020704714F80200F7
:1064F0002DE9F047944CD4E900239A4284B062D04D
:106500000023C4F81834BFF34F8FD4E9013503EAF0
:106510000501CA1C04EB820C14F8222050071BD57D
:1065200026689CF8002002F00302012A43D0022AC8
:1065300004D1BCF80220023303EB921303EA0501F5
:10654000D4F81804CA1C04EB820C28B99E4239D92D
:1065500014F822205207E4D404EB81019E1C01337D
:10656000CA6801922B4004EB830302F00302DB684C
:106570000293022A2BD0012A00F08380D4F8105411
:106580003DB12B6828469B689847EB681D68002D35
:10659000F7D16E486E4B6F49C01AC008000440F036
:1065A000020000F0DDF8D4E90030C01A18BF012065
:1065B00004B0BDE8F087BCF800200233C2F38312B8
:1065C0001344BBE76660002004B0BDE8F087BDF867
:1065D00006306148C3F38919B9F1500FC84628BF86
:1065E0004FF0500868F38F1308F10801ADF806303A
:1065F00001F05AFD07460028C0D001F0A1FD00239C
:10660000082201A9384601F0CBFD25EA0603013333
:10661000B8EB830F4FEA830A73D9BAF1000F7DD12B
:106620004E4942460823384601F0BAFD09F10309F4
:1066300006EB9906D4F81834D4F81054002B5CD12A
:1066400065B1EB685A7939462846002A64D02B6830
:106650001B689847EB681D68002DF2D1384601F0A1
:1066600073FD00230DF103008DF8033001F0D2F823
:10667000D4F8183403B966609DF8030001F0F0F80F
:1066800091E7BDF804203448C2F38313062B28BFDA
:10669000062363F38912023303F00F018900ADF87A
:1066A000042001F001FD074600283FF467AF01F028
:1066B00047FD0023082201A9384601F071FDBDF80D
:1066C000043013F4707FB5D04FF0000831462940F4
:1066D0004FEA88030331083304EB81010422384672
:1066E00001F05EFDBDF8043008F10108C3F3831327
:1066F000434506F10106E9D89CE7384601F024FD40
:1067000051E705EA06010331424604EB8101082303
:10671000384601F045FD89E71D6891E705EA060165
:106720000331A8EB0A0504EB810152463846EDB26D
:10673000082301F035FD09490AF108032A463846C5
:1067400001F02EFD72E700BF502D002044F802003A
:1067500014F80200E4E4020094F802005C2D00202A
:106760002DE9F04F6B4C87B0002307460DF10B006D
:106770008DF80B30D4F808908B4601F04BF8D4E933
:106780000132D4F800A013440133A3EB0A03012B18
:1067900000F2BD80CDE9009704F21C4604F5836841
:1067A00004F214451CE002286FD1BDF80E30C3F38B
:1067B000891303333F0C0CEB9309284601F096F83C
:1067C000394600283FD03046C4F8049001F06AF8FA
:1067D000D4E901322168134401335B1A012B5CD8E0
:1067E0000121304601F05EF8404601F073F828467A
:1067F00001F070F8D4E9013703EA0702D11C04EB79
:10680000810E14F8211001F00400490703F1020C75
:106810002CD404EB82020133D26803923B4004EB98
:10682000830302F003000128DF68E146BBD1BDF815
:106830000C302846C3F38313994401F057F83F0CFA
:1068400039460028BFD13046C0E7BEF802300CEB15
:10685000931307EA0302D11C04EB810E14F8210004
:1068600000F0040003F1020C0028D2D09EF80010C2
:1068700001F0030101290AD0022902F10301E4D049
:1068800004EB810E0028F1D1C3E7002795E7BEF89D
:106890000030C3F383136344DBE7DDE9009701EACB
:1068A00002030333052244F8232002319DF80B0034
:1068B000216000F0D5FF0021174800F0E9FF80F3C8
:1068C00010020AF1010101EA09011204FB0004EBC4
:1068D000810142EA174203F0380309EA0A09CA6053
:1068E00043F0010309F1030243EA8B2344F8223009
:1068F00094F8203413B907B0BDE8F08FFFF7F8FD26
:106900000028F8D0FFF7F4FD0028F7D1F3E751464F
:10691000C5E700BF502D00206C3100202DE9F04F5D
:1069200089B06F4C019000230DF1130017468DF8CC
:106930001330D4F808908B4600F06CFFD4E9013294
:10694000D4F800A013440133A3EB0A03022B00F296
:10695000C480CDE9029704F21C4604F5836804F272
:1069600014451CE002286FD1BDF81630C3F389131B
:1069700003333F0C0CEB9309284600F0B7FF394670
:1069800000283FD03046C4F8049000F08BFFD4E9D3
:1069900001322168134401335B1A022B5CD80121B8
:1069A000304600F07FFF404600F094FF284600F09C
:1069B00091FFD4E9013703EA0702D11C04EB810EF1
:1069C00014F8211001F00400490703F1020C2CD443
:1069D00004EB82020133D26805923B4004EB83034F
:1069E00002F003000128DF68E146BBD1BDF8143096
:1069F0002846C3F38313994400F078FF3F0C3946CF
:106A00000028BFD13046C0E7BEF802300CEB93132C
:106A100007EA0302D11C04EB810E14F8210000F0F8
:106A2000040003F1020C0028D2D09EF8001001F0FF
:106A3000030101290AD0022902F10301E4D004EB89
:106A4000810E0028F1D1C3E7002795E7BEF800309A
:106A5000C3F383136344DBE7DDE9029701EA020332
:106A60000333452244F8232003319DF813002160AD
:106A700000F0F6FE0AF1020303EA090304EB8303C4
:106A800000211848DF6000F003FF80F31001019B34
:106A9000090441EA13410AF10100DB0003F0380365
:106AA00000EA090009EA0A0243F0410304EB80000E
:106AB000033243EA8B23C16044F8223094F8203437
:106AC00013B909B0BDE8F08FFFF712FD0028F8D028
:106AD000FFF70EFD0028F7D1F3E75146BEE700BFF0
:106AE000502D00206C3100202DE9F04F89B06F4C03
:106AF000009001930DF11300002317468DF8133019
:106B0000D4F808908B4600F085FED4E90132D4F821
:106B100000A013440133A3EB0A03032B00F2C4804B
:106B2000CDE9029704F21C4604F5836804F214458B
:106B30001BE0022A6DD1BDF81630C3F3891303336D
:106B40003F0C0CEB9309284600F0D0FE394608B103
:106B5000C4F80490304600F0A5FED4E90013A26802
:106B6000134401335B1A032B55D80121304600F042
:106B700099FE404600F0AEFE284600F0ABFED4E998
:106B8000013703EA0702D11C04EB810E14F821102F
:106B900001F00400490703F1020C25D404EB820242
:106BA0000133D26805923B4004EB830302F00302F9
:106BB000012ADF68E146BCD1BDF81430C3F383136A
:106BC0003F0C9944BFE7BEF802300CEB931307EA81
:106BD0000302D11C04EB810E14F8210000F0040024
:106BE00003F1020C0028D9D09EF8001001F0030137
:106BF000012908D0022902F10301E4D004EB810E3F
:106C00000028F1D1CAE7BEF80030C3F38313634410
:106C1000DDE7002797E7DDE9029701EA0203033386
:106C2000852244F8232004319DF81300216000F0F0
:106C300017FE0AF1020303EA090304EB8303019A36
:106C4000DF600AF1030303EA090304EB8303002175
:106C50001748DA6000F01CFE80F31001009B090465
:106C600041EA13410AF10100DB0003F0380300EAB6
:106C7000090009EA0A0243F0810304EB80000332B1
:106C800043EA8B23C16044F8223094F8203413B9CE
:106C900009B0BDE8F08FFFF72BFC0028F8D0FFF714
:106CA00027FC0028F7D1F3E75146B6E7502D002026
:106CB0006C3100202DE9F04F89B0734C00900193A6
:106CC0000DF11300002317468DF81330D4F8088017
:106CD0008B4600F09FFDD4E90132D4F800A01344A4
:106CE0000133A3EB0A03042B00F2CC80CDE9028729
:106CF00004F21C4604F5836904F214451BE0022AE1
:106D00006DD1BDF81630C3F3891303333F0C0CEB80
:106D10009308284600F0EAFD08B1C4F8048039461B
:106D2000304600F0BFFDD4E901322168134401333D
:106D30005B1A042B55D80121304600F0B3FD4846BC
:106D400000F0C8FD284600F0C5FDD4E9013703EA8C
:106D50000702D11C04EB810E14F8211001F004008D
:106D6000490703F1020C25D404EB82020133D268F7
:106D700005923B4004EB830302F00302012ADF6823
:106D8000E046BCD1BDF81430C3F383133F0C9844E4
:106D9000BFE7BEF802300CEB931307EA0302D11CE5
:106DA00004EB810E14F8210000F0040003F1020C42
:106DB0000028D9D09EF8001001F00301012908D065
:106DC000022902F10301E4D004EB810E0028F1D185
:106DD000CAE7BEF80030C3F383136344DDE700273E
:106DE00097E7DDE9028701EA02030333C52244F88D
:106DF000232005319DF81300216000F031FD0AF1D8
:106E0000020303EA080304EB8303019ADF600AF13B
:106E1000030303EA080304EB83030021DA600AF1A9
:106E2000040303EA080304EB8303129A1748DA60A9
:106E300000F02EFD80F31001009B090441EA13418C
:106E40000AF10100DB0003F0380300EA080008EA59
:106E50000A0243F0C10304EB8000033243EA8B23B0
:106E6000C16044F8223094F8203413B909B0BDE869
:106E7000F08FFFF73DFB0028F8D0FFF739FB002823
:106E8000F7D1F3E75146AEE7502D00206C310020DA
:106E90002DE9F04F89B0794C009001930DF113006A
:106EA000002317468DF81330D4F808808B4600F085
:106EB000B1FCD4E90132D4F800A013440133A3EBB0
:106EC0000A03052B00F2D780CDE9028704F21C46A5
:106ED00004F5836904F214451BE0022A6DD1BDF864
:106EE0001630C3F3891303333F0C0CEB9308284689
:106EF00000F0FCFC08B1C4F804803946304600F0CC
:106F0000D1FCD4E901322168134401335B1A052B0B
:106F100055D80121304600F0C5FC484600F0DAFCA7
:106F2000284600F0D7FCD4E9013703EA0702D11C58
:106F300004EB810E14F8211001F00400490703F15D
:106F4000020C25D404EB82020133D26805923B4047
:106F500004EB830302F00302012ADF68E046BCD1A0
:106F6000BDF81430C3F383133F0C9844BFE7BEF859
:106F700002300CEB931307EA0302D11C04EB810EE1
:106F800014F8210000F0040003F1020C0028D9D00D
:106F90009EF8001001F00301012908D0022902F136
:106FA0000301E4D004EB810E0028F1D1CAE7BEF85A
:106FB0000030C3F383136344DDE7002797E7DDE97F
:106FC000028701EA0203033340F2051244F823204A
:106FD00006319DF81300216000F042FC0AF1020323
:106FE00003EA080304EB8303019ADF600AF1030359
:106FF00003EA080304EB83030021DA600AF10403C7
:1070000003EA080304EB8303129ADA600AF105032A
:1070100003EA080304EB8303139A1948DA6000F0CB
:1070200037FC80F31001009B090441EA1341DB00A7
:1070300003F038030AF1010043F4807300EA08000A
:1070400008EA0A0243F0010304EB8000033243EA3A
:107050008B23C16044F8223094F8203413B909B06E
:10706000BDE8F08FFFF744FA0028F8D0FFF740FAA8
:107070000028F7D1F3E75146A3E700BF502D0020C9
:107080006C31002030B4154DD5F81014044679B198
:1070900000200B4601E01B685BB1DB681A79824275
:1070A000F9D101300A28F4D14FF0FF3030BC7047DD
:1070B0000846E3681871D5F810344BB1DA68E36814
:1070C00012681A60D5F81034DB681C6030BC704759
:1070D000C5F81044E268136030BC7047502D0020A2
:1070E00038B5094BD3F81044012583F820544CB12E
:1070F000E3685D71236820465B689847E3681C6815
:10710000002CF5D138BD00BF502D002030B5C3880C
:1071100083B004460D461BBB237A052B1ED0627A32
:107120007AB9134AA08852F823400021FFF7A6F944
:10713000104903462246284603B0BDE8304000F01F
:107140004FBC1946A088FFF7BDF90B4B0B4953F80C
:107150002020284600F044FC237AE2E703B030BD4B
:1071600007490091074A0849284600F039FCD3E74F
:1071700014F4020024E50200F0F30200C8EC02005F
:107180001CE50200FCE4020004E502002DE9F043E6
:1071900085B01D460C9C002394F80C902373804608
:1071A0000E46174621462846FFF7B0FF062F09D89E
:1071B000DFE807F0042E343B444F1F0041462046D1
:1071C00000F00EFC2B7A052B05D06B7A5BB92749B2
:1071D000204600F005FC204600F0F6FB84F80C90F9
:1071E00005B0BDE8F083224A2249204600F0F8FBB2
:1071F000EDE77369039333690293F3680193B3680E
:107200000093D6E900234146204600F0E9FBD9E788
:1072100032684146204600F0E3FBD3E7D6E900237D
:107220004146204600F0DCFBCCE7B3680093D6E98A
:1072300000234146204600F0D3FBC3E7F3680193E7
:10724000B3680093D6E900234146204600F0C8FB0E
:10725000B8E733690293F3680193B3680093D6E902
:1072600000234146204600F0BBFBABE730E50200BF
:107270001CE50200C8EC0200082900D970472DE97E
:10728000F04F1D4683B000241B7B2C730E4607462F
:107290002946104690460193DFF8C0B0DFF8C0A041
:1072A000FFF734FF05E03A5D013400F099FB082C4C
:1072B00009D0A64251462846F5D85946013400F077
:1072C0008FFB082CF5D12049DFF898B0DFF898A0A3
:1072D0001E4C284600F084FB4FF000090EE017F822
:1072E00009201AF802C01CF0970F08BF2E2209F1DE
:1072F000010900F075FBB9F1080F0BD04E4521468E
:107300002846ECD8594609F1010900F069FBB9F1AA
:10731000080FF3D198F80830052B02D098F80930FF
:107320005BB90B49284600F05BFB284600F04CFB9C
:10733000019B2B7303B0BDE8F08F064A064928462F
:1073400000F04EFBEDE700BF40E5020044E502001F
:1073500030E502001CE50200C8EC02003CE502003A
:1073600034E50200ACF3020055F6020000B585B02A
:107370000346002101AA44F20100CDE90111039363
:1073800000F004F805B05DF804FB00BF10B572B65C
:10739000FFF7A6FEFFF7ACF80028FBD1104B114C0D
:1073A0001149E41AE408240444F00100FFF7D8F975
:1073B0000E4BD3F8F030DB0700D500BE0C4944F08B
:1073C0000200FFF7CDF9BFF34F8F0849094BCA6898
:1073D00002F4E0621343CB60BFF34F8F00BFFDE7C1
:1073E00014F8020044F80200A0E5020000ED00E0FD
:1073F000ACE502000400FA05F8B5204A204B002451
:10740000C2F84041C2F84441C2F84841C2F84C4178
:10741000C2F80041C2F804411B6833B31949D2F8DD
:1074200004550A68AD1A1A6825F07F45AA42274616
:107430000DD8197CDE69AD1A144419B1D3E90520C1
:107440001F7490471EB133461A68AA42F1D90E49FB
:107450000E4A0B7812789A4208D00D480D4A40F82F
:1074600023404FF48011C2F80011F8BD0132D3B2AD
:10747000022B08BF00230B70EFE700BF0010014094
:10748000EC320020E8320020DE320020DF32002023
:10749000E032002000E100E02DE9F04FA74AA849C2
:1074A00013780978DFF8BC929942D9F8004085B08A
:1074B00000F05C810133DBB2022B08BF0023A14D39
:1074C00013701946A04B2F6853F821107B1823F036
:1074D0007F432B60002C00F090810026BE4623469F
:1074E0003546B446374613E0DE68D869C3F800C0B5
:1074F0001544891A3EB10EEB050222F07F42C3E922
:107500000126DF611F460126002800F03381034673
:107510001A688A42E8D9BA4616B1C9F8000004468A
:10752000521A1A600121CDE901144FF0000B874F68
:10753000DFF8108225465E46BAF1000F2FD0DAE957
:1075400001035446DAF81CA0D8F80020DFF818C26E
:10755000811A21F07F4161454CD80B440122C4E9D6
:107560000036A6602274E661002D56D02868984245
:1075700050D22A4600E008469646D2699C461B1A1D
:1075800032B111688B42F6D8A0EB0C0C614411604B
:107590002360E261CEF81C40BAF1000FCFD13B78F6
:1075A0007A789A424DD003EB4302B978013307EB66
:1075B000C202DBB2994208BF00233B701379946882
:1075C000022B2ED0032B71D0012BE8D1217C002976
:1075D000E5D1D06860601369A3608C465169E160B1
:1075E0009269A2615A4A1278002AADD0C4F804C048
:1075F0006046A9E7121A22F07F429A4201D29B1AF2
:10760000ACE70123C4E90066A6602374E66125B1F6
:1076100028680023C31A2B60E561C9F8004025469D
:107620008AE74DB1AC422B4602D174E09C4246D071
:107630001A46DB69002BF9D126743B787A789A4296
:10764000B1D1DDE90114BBF1000F01D1A54242D057
:10765000002D44D03B4A3F4B1468D3F804653E4F9D
:10766000D5F800803A78351B25F07F450335002A90
:1076700000F086803749A8452CBF04EB0803631946
:1076800023F07F43C1F84035D1F80425921B9B1BA2
:1076900022F07F42033223F07F439A4200F2898036
:1076A0002B4A0023137005B0BDE8F08F2DB12E7466
:1076B000ED69002DFBD1C9F8005000256FE7A2420B
:1076C00029D0E3692168D361002BB5D01A680A4438
:1076D0001A602674B1E70029E2D0002DBAD11F4B01
:1076E0001C4E1F4C4FF40032C3F8802001274FF48A
:1076F0008033C6F848333C43C6F808334FF43C6047
:107700007760A0470F4BB7604FF43C601D60A04707
:10771000114B1D70C4E7EA69C9F80020002A58D04F
:10772000D969186811B10B6803440B6095421CBFFE
:1077300015464FF0010B26747FE700BFDF320020B3
:10774000DE320020E8320020E0320020F03200205B
:10775000DC32002000100140DD32002000E100E0BA
:1077600030F40200EC320020FEFF7F004FF0000AF0
:107770005146D8E6BA46C9F8000004463146D2E67A
:107780001F49204A4FF48030C3F844034FF00109E9
:10779000C3F804034FF40030C1F8800142F0010245
:1077A0000860C3F800904FF43C60904787F8009061
:1077B00060E7144BD1F80425C1F8402543F00103DC
:1077C0004FF43C6098470E4B4FF40032C3F8002151
:1077D00066E70393DFF838C00B4B0A490120CCF869
:1077E00008001870094841F0010102604FF43C6044
:1077F0008847D9F80020039B92E7A246012192E630
:1078000000E100E030F40200DC320020E832002029
:107810000010014070B4EFF3108472B60D4A936803
:10782000ABB9012191600C490C4ED1F88050354024
:107830001560C1F88060D1F8845055604FF0FF3278
:10784000C1F88420037004B962B670BC704701238C
:10785000F8E700BFFC33002000E100E0FC06FFBDBC
:10786000094B9A687AB170B910B4EFF3108172B60F
:10787000064A1C6814605C685460986001B962B67E
:107880005DF8044B70477047FC33002000E100E0D6
:10789000034653E8000F0A4643E8002C9CF0000F13
:1078A000F7D17047034653E8002F02EB010043E88D
:1078B000000C9CF0000FF6D1704700BF034653E860
:1078C000002FA2EB010043E8000C9CF0000FF6D162
:1078D000704700BF0346012253E8001F41EA02003F
:1078E00043E8000C9CF0000FF6D1704703460022DD
:1078F00053E8000F00EA020143E8001C9CF0000F6F
:10790000F6D17047D0B110B4D0E90112521A046810
:10791000D2B2531E2160DBB252B101680A6803F192
:10792000FF3C541C0C6013705FFA8CF3FF2BF4D1F6
:107930000368002018715DF8044B70470E207047F3
:1079400030B583B0044600250DF107008DF80750CF
:10795000FFF760FFD4E900311A688A4210D9511E3E
:1079600019602168A3680D6812F8012C208A5B1B3E
:10797000E56800FB02550A79DBB29A4238BF0B7109
:107980009DF80700FFF76CFF284603B030BD00BF2D
:1079900030B5054683B000230DF107000C468DF885
:1079A0000730FFF737FF2A681368591C1160E96830
:1079B0002A8A641AB4FBF2F41C709DF80700FFF7E2
:1079C0004FFF03B030BD00BF826842B110B504461E
:1079D00043690168006998470023A36010BD7047A0
:1079E0000EB400B582B0039921B104AB01AA019392
:1079F00000F09CF802B05DF804EB03B0704700BFE4
:107A00002DE9F84F1546A942DDF828A00B9A0F463C
:107A100006469B46C0F085800B464FF00108B3FB3D
:107A2000F5F39D4208F10108F9D9D84538BFD84689
:107A300012F00109B16802D1BAF1000F51D1BBF1C6
:107A4000010F4FF0010406D90BF1FF3BBBF1010F11
:107A500005FB04F4F8D8B7FBF4F2954205D805FB12
:107A600004F4B7FBF4F29542F9D9DFF8BCB007E0B3
:107A7000AC42B4FBF5F316D3B7FBF3F2B1681C4686
:107A80004B1CB36033681BF80200585404FB127798
:107A9000D6E901329A42EBD33046FFF795FFB4FBAB
:107AA000F5F3AC42E8D2B9F1000F18D0BAF1000FEB
:107AB00015D0C24513D9202401E0C2450FD0B368C8
:107AC0003268591CB160D454D6E901329A420AF1A5
:107AD000FF3AF2D33046FFF777FFC245EFD1BDE85A
:107AE000F88F930717D42024C245A8D932684B1CBD
:107AF000B3605454D6E9012191420AF1FF3A05D20C
:107B0000BAF1000F9BD0C245F0D198E73046FFF79D
:107B10005BFFB168F4E7BBF1000F0CBF30242024F9
:107B2000E2E74FF0010880E738F40200002900F096
:107B3000E4812DE9F04F0C4685B014F8013B064670
:107B400091461BB913E023788BB10134252B15D056
:107B5000B2683168501CB0608B54D6E901329A4249
:107B6000F1D33046FFF730FF2378002BEDD1337B84
:107B7000002B40F0B98005B0BDE8F08F2246002709
:107B800012F8013B2D2B00F08780302B00F088800D
:107B90002B2B78D02A2B00F08780A3F13001092904
:107BA0004FF000050DD805EB850503EB450513786F
:107BB000A3F1300109291446A5F1300502F10102B3
:107BC000F1D92E2B224678D04FF00008541C03F038
:107BD000FB02682A4CD0252B52D0583BDAB2202A1F
:107BE000B1D8202BAFD801A252F823F0857D020036
:107BF000477B0200477B0200477B0200477B020075
:107C0000477B0200477B0200477B0200477B020064
:107C1000477B0200477B0200C77E0200F57C020022
:107C2000477B0200477B0200477B0200477B020044
:107C3000F57C0200477B0200477B0200477B020085
:107C4000477B0200477B0200477B0200A17D0200C8
:107C5000477B0200477B02004D7E0200477B02000B
:107C6000BD7E0200477B0200477B0200857D02004B
:107C700014F8013B03F0FB02682AF9D0252BACD1A4
:107C80003168B26866E747F004071446224612F8E6
:107C9000013B2D2B7FF479AF47F001071446F5E740
:107CA00047F002071446F1E7D9F80030191DC9F86A
:107CB00000101D6863782E2B86D15378A3F1300114
:107CC000092902F101024FF000083FF67FAF08EBEF
:107CD000880803EB480812F8013FA3F13001092995
:107CE000A8F13008F3D971E7304605B0BDE8F04F90
:107CF000FFF76ABED9F800301A1DC9F80020D3F882
:107D000000A08AEAEA73A3EBEA73092B40F3AF8180
:107D1000B84801211A46632AA0FB03C301F10101FF
:107D20004FEAD303F6DC414538BF41468B4607F0A6
:107D30000301002D00F0E280BAF1000F07F002020B
:107D4000C0F2368117F0040340F05881002A40F059
:107D50009881002F40F0EA805D4540F2E7802023C3
:107D6000B268501CB06030688354D6E90102824288
:107D700005F1FF3580F03181002D00F0BF80AB456B
:107D8000EED1BCE0D9F8001043461022081DC9F816
:107D9000000009683046CDE90057FFF731FED2E612
:107DA000D9F800301A1DC9F80020D3F80080B36854
:107DB0003268581C3021B060D154D6E90123934277
:107DC00080F02B81591C3268B1607821D154D6E9FA
:107DD00001329A4280F04681B8F10F0F474603D92D
:107DE00043461B090F2BFCD801250823013B012B1F
:107DF00029464FEA0515F9D1B8FBF5F30F2B09D940
:107E00000D02B8FBF5F30F2B04D92D01B8FBF5F3E8
:107E10000F2BFAD8DFF8E08106E00F2D4FEA15139B
:107E20007FF691AEB2681D46511CB1603168B7FB58
:107E3000F5F318F80300885405FB1377D6E90132EF
:107E40009A42EAD33046FFF7BFFDE6E7D9F80030A3
:107E50001A1DC9F8002017F00107D3F800806ED072
:107E600098F80020002A00F01381B3684746C8F153
:107E7000010A3168581CB060CA54D6E90123934204
:107E80000AEB070830D217F8012F002AF1D1454537
:107E90007FF659AE202702E045453FF454AEB36863
:107EA0003268591CB160D754D6E901329A4205F1C3
:107EB000FF35F1D33046FFF787FDEDE7D9F8001025
:107EC00043460A2262E7D9F800301A1DC9F800209B
:107ED0001978B3683268581CB060D154D6E90132C1
:107EE0009A42FFF430AE3CE63046FFF76DFD17F8DE
:107EF000012F002ACBD0B368BBE770470025BAF149
:107F0000000F5DDB07F0040373B1B2683368501CE7
:107F1000B0602B209854D6E901329A4204D33046FF
:107F20000391FFF751FD039902297BD0CDE900575A
:107F3000434651460A223046FFF762FD03E6B8F198
:107F4000000F03D0404605F0BBF90746BD4214D9E7
:107F50004FF0200A01E0BD420FD0B3683268591CCF
:107F6000B16002F803A0D6E90123934205F1FF3581
:107F7000F1D33046FFF728FDEDE798F80020002AFE
:107F80003FF4E1ADB3683168581CB060CA54D6E91B
:107F90000123934204D218F8012F002AF3D1D2E52D
:107FA0003046FFF711FD18F8012F002AEAD1CAE583
:107FB000013D002A5DD0B8F1000F01D0F80725D5AA
:107FC000B2683368501CB0602D209854D6E9013255
:107FD0009A4209D2CAF1000AA6E730460391FFF798
:107FE000F3FC03992023C7E630460391FFF7ECFC2E
:107FF0000399EFE7CDCCCCCC38F40200013D12B1AF
:10800000B8F1000F80D0FA073FF57EAF002D3FF4A6
:1080100075AFAB45FFF4A3AE71E73046FFF7D4FC74
:10802000B368CFE6B8F1000F80D1002D3FF47EAFEA
:10803000AB45BFF47BAF3021B2683368501CB060F1
:108040009954D6E901329A4205F1FF3505D2002D47
:108050003FF46CAFAB45EFD168E73046FFF7B4FCB7
:108060003021F4E73046FFF7AFFCB268B4E60121F7
:1080700059E6FB07A4D4002DA2D0AB45FFF46FAEA8
:108080009EE7B8F1000F05D102297FF44FAFCFE78B
:108090009046FCE6FB073FF547AF5D453FF65FAE18
:1080A00042E700BFFFF72EBC2DE9F041078ACE1C46
:1080B000043F3E440546B6FBF7F6FFF741FC0028B7
:1080C00034D0F6B24FF48073013E04468380C780FB
:1080D00005602CD003464FF0000807E06279464562
:1080E00002F1010262713860056020D028461F4607
:1080F000FFF726FC08F1010803460028EED1677956
:108100002668791E16D02246013399421268FBD1A7
:10811000D2F8008057B1002501E034463668214688
:1081200040460135FFF734FCAF42F6D80024204624
:10813000BDE8F08121463046FFF72AFCF6E700BF94
:1081400001210430FFF7AEBB2DE9F04101210446C7
:108150000430FFF7B3FB10F0FF0301D0BDE8F0815E
:1081600067792668791E15D0224601339942126834
:10817000FBD1D2F80080002FF0D0002501E034467A
:108180003668214640460135FFF702FCAF42F6D87B
:10819000BDE8F08121463046BDE8F041FFF7F8BB6D
:1081A0002DE9F8438846C788417907FB01F1043976
:1081B00002EB030C1E1D6145154638BFCD1AB742B0
:1081C0000446B6FBF7F207FB126002D8013A2468B6
:1081D000FCD13E1AAE4228BF2E469DB14FF0000999
:1081E0000430AD1B324608EB0901204405F026F9A6
:1081F000AF42B14424683E464FF0000028BF2E46EF
:10820000002DEDD1BDE8F8832DE9F8430446C78879
:10821000407907FB00F0043802EB030C1E1D60459B
:10822000154638BFC51AB7428846B6FBF7F207FBBA
:10823000126102D8013A2468FCD17E1AAE4228BFEE
:108240002E469DB14FF0000904312144AD1B32464A
:1082500008EB090005F0F2F8AF42B14424683E464D
:108260004FF0000128BF2E46002DEDD1BDE8F88368
:108270008268002393608268136182685361826818
:10828000D3608268536082681360704701600B6836
:1082900043604A68934208BF00234360704700BFB1
:1082A000436843B1026891680B444360526893424B
:1082B00004BF0023436070470E49A1F5947205E0A6
:1082C00052F83330984238BF614607D28B1A1B11DF
:1082D000914202EBC30CF3D80748704702D90CF166
:1082E0000802F3E7DCF80400034B002808BF184637
:1082F000704700BF70F5020070F5020010B44FF037
:10830000704393F8E02F062A22D04FF08053D3F821
:108310003021062A5FD0BD4AD2F8883043F470037A
:10832000C2F88830BFF34F8FBFF36F8F4FF0102329
:10833000D3F80022002AC0F23881D3F80432002B8F
:10834000C0F23381B24BB34A1A605DF8044B7047F8
:10835000D3F8E42F1107D8D1D3F8E83F03F0F002A7
:10836000302A61D003F0E003402B5DD04FF0704322
:10837000D3F8E83F03F0E003402B73D04FF0704395
:10838000D3F8E83F03F0E003402B00F08F804FF07C
:108390007041D1F8E83F03F0F003502B00F0B380B8
:1083A0004FF07043D3F8E83F03F0F002302A1ED0BC
:1083B00003F0E002402A1AD003F0E003402BA4D1DE
:1083C0004FF08043D3F80024D20744BF6FF001027E
:1083D000C3F8002499E7D3F83431062B9BD18E4A99
:1083E000D2F83C3743F48063C2F83C3793E74FF050
:1083F00080524FF07043D2F8582293F8E01F4FF0AC
:10840000804002F04F020629C0F8E42E7FF47DAFD1
:10841000D3F8E42F11077FF478AFD3F8E83F03F0E7
:10842000F002302AC8D1CBE74FF080524FF07043B2
:10843000D2F8242393F8E01F7848C2F304220629D7
:10844000C0F840257FF461AFD3F8E42F12077FF422
:108450005CAFD3F8E83F03F0F003302B86D1704BCC
:10846000704A5A674FF080524FF07043D2F844225E
:1084700093F8E01F4FF08040C2F342320629C0F863
:108480003C257FF442AFD3F8E42F14077FF43DAFCF
:10849000D3F8E83F03F0F003302B7FF46FAF5B4A73
:1084A000D2F8FC3023F08073C2F8FC304FF07042F9
:1084B0004FF0804192F8E00F00230628C1F80C31FC
:1084C000C1F81031C1F838357FF41FAFD2F8E43F5E
:1084D00013F00F037FF419AFD2F8E82F02F0F00287
:1084E000302A7FF454AF504A0320C1F8A005052478
:1084F00001203F21C2F81046C2F88806C2F818369B
:10850000C2F8141643E74FF08052484BD2F80404E7
:10851000C3F82005D2F80804C3F82405D2F80C04E7
:10852000C3F82805D2F81004C3F82C05D2F81404B7
:10853000C3F83005D2F81804C3F83405D2F81C0487
:10854000C3F84005D2F82004C3F84405D2F8240447
:10855000C3F84805D2F82804C3F84C05D2F82C0417
:10856000C3F85005D2F83004C3F85405D2F83404E7
:10857000C3F86005D2F83804C3F86405D2F83C04A7
:10858000C3F86805D2F84004C3F86C05D2F8440477
:1085900091F8E02FC3F87005062A7FF4B6AED1F843
:1085A000E43F18077FF4B1AEFAE6214A0123C2F88E
:1085B0000435D2F80034002BFBD04FF010231521E6
:1085C0001B4AC3F80012D2F80034002BFBD04FF046
:1085D00010231521164AC3F80412D2F80034002BD8
:1085E000FBD000231249C2F80435D1F80034002B27
:1085F000FBD0BFF34F8F05490E4BCA6802F4E0620F
:108600001343CB60BFF34F8F00BFFDE700ED00E0E9
:10861000E82900200090D003001000400030014005
:1086200000C007400DF0ADBA0050004000C000404F
:1086300000E001400400FA05044A115C01234FF0F8
:10864000A0428B40C2F80C35704700BF84F5020091
:10865000044A115C01234FF0A0428B40C2F8083558
:10866000704700BF84F502004FF0A04310B44FF4F0
:1086700080204FF400344FF400214FF48012C3F8EF
:108680000845C3F80805C3F80815C3F808255DF8C0
:10869000044B7047C20710B41AD54FF0A043032211
:1086A0004FF40031C3F844274FF48024C3F848271F
:1086B000C3F84C27C3F85027C3F808154FF48012AD
:1086C0004FF40021C3F80845C3F80815C3F808257E
:1086D00083070AD54FF0A0430C22C3F83427C3F810
:1086E0003827C3F83C27C3F840275DF8044B704790
:1086F00010B568B90E4CA368012262703BB1D3E992
:1087000000230020A2609847A368002BF7D110BD7A
:108710000128FCD1064C2369A070002BF7D0D3E9C7
:1087200000230120226198472369002BF7D110BD57
:108730000834002070B910B5074CA368012262709C
:108740003BB1D3E900230020A2609847A368002B27
:10875000F7D110BD704700BF0834002030B50128A4
:1087600083B01DD0032806D018B9224B0122C3F8CC
:10877000802003B030BD204C00F0BEF800230DF186
:1087800007008DF80730FFF745F8E368013BE36029
:10879000E5683DB39DF80700FFF762F803B030BD10
:1087A000154C00230DF107008DF80730FFF732F864
:1087B000237853B1E3689DF8070001221344E36076
:1087C000A270FFF74DF803B030BD0C486360A360A2
:1087D0002361E36000F084F803F06AF830B101230C
:1087E0002370E7E700F09CF8A570D3E700F084F869
:1087F000F5E700BF00E100E008340020F186020048
:1088000010B50B4B0B4C027890F808C053F8213090
:1088100054F82110446884B08DF80020C268019497
:108820008DF808C003926846984704B010BD00BF99
:10883000243400202034002030B50A4B0A4C53F871
:10884000213054F82110027885B0D0E901548DF818
:108850000020C26801958DF8084003926846984749
:1088600005B030BD2434002020340020F0B5174B73
:1088700006784F7F43F82620154B14460A6943F8C3
:108880002620144B8E469F550546BEE80F0089B042
:10889000EC46ACE80F009EE80F008CE80F00049651
:1088A0004FB1002C0C4A694608BF2246281D00F033
:1088B00083FE09B0F0BD002C084A694608BF224675
:1088C00005F10C0000F034FC09B0F0BD24340020A8
:1088D000203400201C340020018802003988020066
:1088E000044A137923B9012110609180184670471A
:1088F0008520704728340020084B1A68D20706D418
:108900000122E02183F80013C3F880211A604FF0A0
:1089100080430122C3F81825704700BF00E100E042
:108920004FF080420123D360D2F81834DB03FBD42C
:10893000704700BF10B54FF0804382B0D3F80021DC
:1089400062B10021164AC3F80011D3F80011507922
:1089500000910121009CC3F80813A8B14FF0804397
:10896000D3F80421CAB10022C3F80421D3F80421AA
:10897000019202210A4A0198C3F8081313680120E2
:1089800002B0BDE8104018471368517198474FF086
:108990008043D3F80421002AE5D102B010BD00BF06
:1089A000283400202DE9F04F87B0BE4A0023019300
:1089B000D2F80011012900F016821E46B94BD3F8F7
:1089C0000421012A00F00082B64BD3F80821012AC5
:1089D00000F0EB81B34BD3F80C21012A00F0D681D3
:1089E000B04BD3F81021012A00F0C181AD4BD3F870
:1089F0001421012A00F0AC81AA4BD3F81821012AD6
:108A000000F09781A74BD3F81C21012A09D0A54B70
:108A1000D3F87C21012A00F0F38106BB07B0BDE842
:108A2000F08FD3F804231206F1D50022C3F81C21DD
:108A3000D3F81C110491D3F87C110498012946F055
:108A400080060CD1C3F87C21D3F87C2105924FF02D
:108A5000A043059AD3F81035019346F00046924F93
:108A600000240125A30003F180432E4203F5C043F7
:108A70000BD0D3F8100557F82420D3F81015C0F305
:108A80000420C1F3014102B190470134082C4FEAA0
:108A90004505E7D1002EC1DA0023834C02934FF045
:108AA000FF32012502AE94F9503003925F1C2FD0A3
:108AB000C3F3C20C0CF118020DEB020703F007021E
:108AC00017F80C1C05FA02F211425FFA83FE03F05C
:108AD0003F001DD023184FEA9E1193F9303054F80F
:108AE0002330002B00F0FE80032900F0FE804FEAC7
:108AF000800C0CF1A04C17F8147CDCF800E7174050
:108B0000CEF3014E00F0C080BEF1020F00F0C28132
:108B10004FF00108002794F95130581C31D0C3F3AD
:108B2000C20A0AF118020DEB020E03F007021EF84A
:108B30000C1C05FA02F211425FFA83FC03F03F00BD
:108B40001FD023184FEA9C1B93F9303054F8239020
:108B5000B9F1000F00F0DA80BBF1030F00F0DA800A
:108B6000830003F1A0431EF814ECD3F800171EEAAB
:108B7000020FC1F3014C00F09980BCF1020F00F02C
:108B8000968194F95230591C30D0C3F3C20A0AF1CD
:108B900018020DEB020903F0070219F80C1C05FA84
:108BA00002F211425FFA83FC03F03F001ED023184B
:108BB0004FEA9C1E93F9303054F82380B8F1000F2F
:108BC00000F09A80BEF1030F00F09A80830003F159
:108BD000A04319F8149CD3F8001719EA020FC1F347
:108BE000014C72D0BCF1020F00F05A8194F953305D
:108BF0005A1C2ED0C3F3C20A0AF118020DEB020967
:108C000003F0070219F80C1C05FA02F211425FFA90
:108C100083FC03F03F001CD023184FEA9C1E93F9FD
:108C2000303054F82380B8F1000F79D0BEF1030F33
:108C300079D0830003F1A04319F8149CD3F80017EE
:108C400019EA020FC1F3014C11D0BCF1020F00F080
:108C5000E780002F3FF4E2AE4FF0A043019AD3F833
:108C6000103593423FF4DAAE029A01931BE7BCF150
:108C7000030FEED1BEF1030F00F0D980B8F1000F61
:108C8000E7D07146C047E4E7BEF1030F7FF440AF81
:108C9000032900F013814FF00108002B3FF43BAF94
:108CA000984738E70060004030340020BCF1030FE3
:108CB0007FF467AFBBF1030F00F0DD80B9F1000F67
:108CC0003FF45FAF5946C8475BE7BCF1030F8DD156
:108CD000BEF1030F00F0BF80B8F1000F86D07146DF
:108CE000C04783E703297FF413AF16F80CE04EEA80
:108CF000020E06F80CE0FAE6BEF1030F7FF476AF41
:108D000016F80A30134306F80A305FE7BBF1030F89
:108D10007FF437AF16F80A30134306F80A301FE71E
:108D2000BEF1030F95D116F80A30134306F80A3046
:108D30007FE7D3F8042351067FF564AE0022C3F821
:108D40001821D3F818310493049B46F0400659E6E5
:108D5000D3F8042390067FF54FAE0022C3F8142108
:108D6000D3F814310493049B46F0200644E6D3F86C
:108D70000423D4067FF53AAE0022C3F81021D3F8BD
:108D800010310493049B46F010062FE6D3F8042319
:108D900015077FF525AE0022C3F80C21D3F80C315E
:108DA0000493049B46F008061AE6D3F804235707F9
:108DB0007FF510AE0022C3F80821D3F808310493E0
:108DC000049B46F0040605E6D3F8042392077FF5DA
:108DD000FBAD0022C3F80421D3F804310493049BB3
:108DE00046F00206F0E5D2F8046316F001063FF4FF
:108DF000E5ADC2F80031D2F800310493049BDDE503
:108E00000022C3F87C21D3F87C2105924FF0A043C7
:108E1000059AD3F810350193002E3FF43DAE1CE6C1
:108E2000BEF1030F7FF42AAF4FF4403101E04FF45D
:108E30000031D3F8002722F44032C3F80027D3F8DA
:108E400000270A43C3F80027B8F1000F3FF404AF2E
:108E50000321C04700E74FF40031D3F8002722F484
:108E60004032C3F80027D3F8002701370A43FFB286
:108E7000C3F8002730E74FF40031D3F8002722F47D
:108E80004032C3F80027D3F800270A434746C3F807
:108E9000002713E7032922D04FF001080027FCE642
:108EA000BEF1030F7FF418AF4FF44031D5E7BBF1AB
:108EB000030F7FF403AF4FF44031DEE74FF4003788
:108EC000DCF8002722F44032CCF80027DCF8002739
:108ED0003A43CCF800274FF002080127DDE64FF4B3
:108EE0004037EDE7014B1B68184700BF8C3400206A
:108EF000114B98421DD110B582B000230DF107002F
:108F00008DF807300C46FEF785FC0C4B1A794AB9F0
:108F10009DF807001C6001221A71FEF7A1FC0020D9
:108F200002B010BD9DF80700FEF79AFC112002B0B8
:108F300010BD0020704700BF002000408C3400208E
:108F4000034B984203D1034B00221A601A717047F9
:108F5000002000408C34002030B5734AD2F804332E
:108F600099058BB06DD5D2F82431002B69D0002340
:108F7000C2F82431D2F8243103934FF401716B4BC2
:108F80000398C2F8081393F8291009B90121516018
:108F9000654902228DF81820D1F88024C1F8802478
:108FA0009FED5F7B9969D8680790CDE9081283ED42
:108FB000067BD3E9001206A890475B4AD2F81C3121
:108FC000EBB15A4B186A596988426FD293F828005E
:108FD0009C6800F0FF05002872D00020C2F81C0138
:108FE000D2F81C210192019AD3E901400022CDE977
:108FF00007018DF8182019685A6106A8A0474A4A47
:10900000D2F84431DBB10021484BC2F84411D2F808
:10901000440193F829100090009809B101211160D2
:109020009A6962B1D8685C6A00210122CDE907041F
:1090300099618DF8182006A8D3E9001290470BB06B
:1090400030BD394AD2F804335B07B6D5D2F80831BF
:10905000002BB2D0354B996900293FD00021C2F8CE
:109060000811D2F8081104910499D868596AD2F805
:10907000182542545A6A996901325A625A6A8A42D8
:109080009BD1DA691968002A31D0D8685C6A1D69F9
:1090900007909A61002001220894D86158625C68A8
:1090A000DD608DF8182006A8A04786E70020C2F8EA
:1090B0001C01D2F81C210192019A00299FD093E74C
:1090C000C2F81C51D2F81C1102910299186A196A4F
:1090D000205C01311962C2F81C0590E7C2F8081142
:1090E000D2F8080105900598D2F81825C6E793F83C
:1090F000292012B90C4A012050600B4A4FF401702C
:10910000C2F80803586ADA6800249C610124CDE99A
:1091100007205B688DF8184006A898474DE700BF08
:1091200000000000000000000020004098340020F3
:109130002DE9F041634E07792C2303FB076382B0CE
:1091400093F82A30002B40F0928005460C460068C8
:109150005D499046FFF7CCFE002840F084802368EC
:10916000591C0CD04FF0A041012202FA03F3C1F8C0
:109170000835236803F5E073032241F82320636870
:109180005A1C06D003F5E0734FF0A042002142F8CC
:1091900023102B68A269C3F82425227D637D134325
:1091A0002A68C2F86C35D4E900122B68C3F814257C
:1091B000C3F80C15237D012B62D02C2307FB03F38E
:1091C000F218C2F804802269F250B8F1000F32D0D0
:1091D0002B68227F0021C3F81C11D3F81C310093A7
:1091E000009B2B68C3F84411D3F844310193019BD1
:1091F0002B683649C3F804132B6843F30733520135
:10920000002BD2B237DB03F1604303F5614383F8EF
:109210000023296841F3C43323F0604323F00303A0
:1092200003F1604303F561430122C1F304318A4035
:10923000C3F880211A602B6825490422C3F8002551
:109240002C2303FB07F73E4407F110030022F261D1
:1092500086F82920CA500B4401215A6086F82A104A
:1092600002B0BDE8F081112002B0BDE8F081082015
:1092700002B0BDE8F081174903F00F03CA54C8E7F4
:10928000A368591C06D003F5E0734FF0A0420021FB
:1092900042F82310E3685A1C0DD04FF0A041012280
:1092A00002FA03F3C1F80835E36803F5E07303221B
:1092B00041F82320E3682A68A168C2F80835C2F89B
:1092C00010157AE798340020598F020080000200C0
:1092D0009C34002014ED00E0F8B5036805792E4CAD
:1092E0000022C3F800252C2303FB05435B6883B1F0
:1092F00003682A4AC3F808230368294E43F3073357
:109300005A09203203F01F03012101FA03F346F842
:10931000223003684FF0FF32D3F80CC5D3F8147530
:10932000D3F80815D3F81065C3F81425C3F80C2535
:1093300003689445C3F80825C3F8102506D00CF53A
:10934000E07C4FF0A043022243F82C207B1C06D087
:1093500007F5E0774FF0A043022243F82720721C64
:1093600006D006F5E0764FF0A043022243F826200F
:109370004B1C06D04FF0A04301F5E071022243F8E8
:1093800021200068FFF7DCFD2C2202FB05440023AE
:1093900084F82A306360F8BD98340020840202000B
:1093A00000E100E02DE9F041334C90F804E02C237B
:1093B00003FB0E438446586984B000284ED11862DE
:1093C000996083F828005A61DCF80020C2F81C017B
:1093D000D2F81C210292029ADCF80020012191604F
:1093E000DCF800209D68C2F81C01D2F81C11019124
:1093F0000199196A6E5C196A01311962C2F81C651B
:109400005A6812B104B0BDE8F0811A6A5E69DCF8EE
:10941000001096421BD9074602E093F828200ABBA9
:10942000D1F81C21002AF8D0C1F81C71D1F81C21F8
:109430000392039A1A6A15F802801A6A01321A62B4
:10944000C1F81C851A6AB242EAD3DCF80010D1F8E0
:109450001C31002BFBD00123CB6004E0112004B0B1
:10946000BDE8F0810F202C2303FB0E4300225A613C
:1094700004B0BDE8F08100BF983400200000000077
:10948000F0B54B4BD3F8242189B0002A49D00022F3
:10949000C3F82421D3F82411029102228DF8102060
:1094A0000299444AD3F88014C3F880149FED3E7BA0
:1094B0000791D3F83C45D068059082ED067BD2E950
:1094C00000138DF8184004A89847394BD3F844216D
:1094D00052B1384A0021C3F84411D3F8444190698D
:1094E0000194019C002845D1314BD3F82021B2B121
:1094F000304A0020C3F82001D3F82041516900947C
:10950000009C61B1D3F84C458DF81840D2E9013187
:109510008DF8100005915061116804A8984709B0B2
:10952000F0BDD3F810110029CFD0C3F81021D3F823
:109530001011204C03910399A169D3F83C0588428E
:10954000C3D1E569E768A561D4E90016C0B205B3E7
:10955000E261D3F8002222F02002C3F8002223693E
:10956000E36001238DF81800059704A88DF81030EA
:10957000B047AAE7D3F83C45D068916101238DF844
:1095800010300590D2E900138DF8184004A89847D0
:10959000AAE701238DF818008DF81030059704A86C
:1095A000B04792E7AFF30080000000000000000029
:1095B00000200040C83400202DE9F04306796B4FAD
:1095C00006EBC60307EB830385B093F82030002B2E
:1095D00040F0A18004460D46006865499046FFF7BB
:1095E00087FC002840F093802B68591C4FEAC6097D
:1095F0000CD04FF0A041012202FA03F3C1F8083564
:109600002B6803F5E073032241F823206B685A1C92
:1096100006D003F5E0734FF0A042002142F823107A
:109620002368AA69C3F824252B7D6A7D1A43236821
:10963000C3F86C25D5E900312268C2F80C35C2F8B0
:1096400014152B7D012B6FD009EB060207EB82036B
:10965000C3F804802B6947F82230B8F1000F40D0DE
:1096600021682A7F0023C1F81031D1F81011009130
:1096700000992168C1F82031D1F820110191019998
:109680002168C1F82431D1F824110291029921688E
:10969000C1F84431D1F844310393039B2368354921
:1096A000C3F80413236843F307335201002BD2B2EB
:1096B00035DB03F1604303F5614383F80023216840
:1096C00041F3C43323F0604323F0030303F1604309
:1096D00003F561430122C1F304318A40C3F88021BC
:1096E0001A60B1444FEA89032468234907EB8907CC
:1096F000103300220825FA61C4F80055CA500B4403
:1097000001215A6087F8201005B0BDE8F0831120D0
:1097100005B0BDE8F083082005B0BDE8F083174927
:1097200003F00F03CA54CAE7AB68591C06D003F50F
:10973000E0734FF0A042002142F82310EB685A1C5E
:109740000DD04FF0A041012202FA03F3C1F8083511
:10975000EB6803F5E073032241F82320EB682268ED
:10976000A968C2F80835C2F810156DE7C8340020A2
:109770008194020010030200CC34002014ED00E0BC
:10978000F8B505790368304C0022C3F8002505EBD5
:10979000C50304EB8303EE005B6883B103682B4AC7
:1097A000C3F8082303682A4F43F307335A092032CA
:1097B00003F01F03012101FA03F347F82230036885
:1097C0004FF0FF32D3F80CE5D3F814C5D3F80815E1
:1097D000D3F81075C3F80C25C3F814250368964513
:1097E000C3F80825C3F8102506D00EF5E07E4FF02B
:1097F000A043022243F82E20BCF1FF3F06D00CF517
:10980000E07C4FF0A043022243F82C207A1C06D0C3
:1098100007F5E0774FF0A043022243F827204B1CC6
:1098200006D001F5E0714FF0A043022243F8212059
:109830002E4404EB86040068FFF782FB002384F8C3
:1098400020306360F8BD00BFC83400201003020060
:1098500000E100E001F0604CBCF1005F2ED170B57A
:1098600090F804E0214D0EEBCE0C05EB8C0C03467A
:10987000DCF8140082B04FEACE06002832D1CCF8D2
:109880000810CCF814201C68C4F82001D4F820413A
:109890000194019C1C68C4F85801D4F85841009404
:1098A000009C1C68C4F84415C4F848251A680121B6
:1098B0009160DCF804201AB102B070BD102070472E
:1098C0001A68D2F82031D2F858010343F9D076440F
:1098D00005EB860300284FF0000218BF0F205A61E5
:1098E00002B070BD112002B070BD00BFC8340020AE
:1098F00003280DD8012A0DD001291BD002290FD031
:1099000031B90F4B00EB400003449A7000207047C0
:109910000720704701290AD002294FF00002EFD139
:10992000074B00EB4000034400205A70704700F1E1
:109930000E02D2B2024B00EB40001A54E6E700BF21
:10994000EC34002010B50388102B16D0112B00D05A
:1099500010BD254B1868013818600028F8D1012285
:109960000221FFF7C5FF70B107280CD01F4B1B6801
:10997000002BEDD0BDE8104018471B4C2168A1B169
:109980000131216010BD072202210120FFF7B0FF45
:1099900008B10728EAD100210A220846FFF7A8FFEC
:1099A0000028D5D00728D3D0E0E701220846FFF7EA
:1099B0009FFF38B1072805D00C4B1B6803B19847AF
:1099C0002168DDE7072202210120FFF791FF08B19E
:1099D0000728F1D1042202210020FFF789FF002887
:1099E000EED00728ECD0E7E7F8340020FC34002064
:1099F00075DF70478CDF704762DF704770B51F4BB3
:109A00001F4CE41AE408240444F003060D463046D3
:109A10001C49FCF7A5FE0120FEF70EFE2A789AB13C
:109A2000022A05D030461849BDE87040FCF776BFE1
:109A300044F002001549FCF793FE154B0020187006
:109A4000BDE87040FEF7F8BD12493046FCF788FECD
:109A50000220FEF7F1FD69880F4805F10E0201F0C2
:109A600083FE0D4801F01AFE094B0C4901221A70C1
:109A70003046BDE87040FCF773BE00BF14F802002A
:109A800044F80200E0E9020060EA020040EA020055
:109A900054350020FCE902005835002014EA020089
:109AA00010B52849044682B000F07CFD26492046C6
:109AB00001F0B2FD254B26492288A3EB010C4FEAA9
:109AC000DC0C112A4FEA0C4C28D01F2A13D0102A84
:109AD0002FD14CF003001F49FCF742FE0020FEF797
:109AE000B7FD0120FEF7A8FD1648A18802B0BDE829
:109AF000104000F019BDE189A2896389CDE90021F8
:109B00004CF0030022891449FDF7C2F9A08804F142
:109B1000080102B0BDE81040FFF76ABF4CF0020038
:109B20000E49FCF71DFE002002B0BDE81040FEF714
:109B300083BD0B494CF0030002B0BDE81040FCF7B8
:109B4000EDBE00BFF82900205835002044F802007F
:109B500014F8020080EA02009CEA020040EA0200D7
:109B6000F8EA0200084B094A094910B50446981A58
:109B7000C008000440F00300FCF7F2FD2146054850
:109B8000BDE8104001F0D4BC44F8020014F8020013
:109B900014EB0200583500202DE9F0470378032B21
:109BA00012D0062B01D0BDE8F087264B2648274966
:109BB000C01AC008000440F00100FCF7D1FDBDE868
:109BC000F0470320FEF738BD80460020FEF734FD45
:109BD000D8F8043093F81CA09E69BAF1000FE2D0C7
:109BE000DFF87C90002302E07B195345DBD25D1C3B
:109BF000F75C725D092AF7D102334846F41803F086
:109C00005FFB49460246204603F054FD0028EBD195
:109C10000C4B0D4C0E49E41AE408240444F00304F0
:109C20002046FCF79DFD20460A49FCF799FDD8F82F
:109C30000400094A0949BDE8F04701230230FFF753
:109C4000D9BE00BF14F8020044F8020080EB020005
:109C500044EB020060EB0200EC2900207C35002080
:109C600034EB020000B50C4B0C480D49C01AC0087B
:109C7000000483B040F00300FCF772FD0023019361
:109C800001F00CFE01A9012001F06AFE01A801F01B
:109C900043FF03B05DF804FB14F8020044F802002F
:109CA000A0EB020030B5104B1048114D1149C01AFD
:109CB000C008000485B040F00300FCF751FD00240B
:109CC0000D4908222846CDE90044CDE9024403F0BD
:109CD000B5FB0A4A8DF804406946A5F10A000094D4
:109CE00001F06AFA05B030BD14F8020044F8020031
:109CF00072350020BCEB0200EC290020999B020089
:109D000000B50A4B0A480B49C01AC008000483B0CA
:109D100040F00300FCF724FD074B0848019301A91C
:109D200001F050FC03B05DF804FB00BF14F8020022
:109D300044F80200D8EB0200FD99020058350020DB
:109D40002DE9F04F2DED028B01208DB0FEF7A2FC26
:109D50009E4DFEF789FC642445F001054FF47A40DE
:109D6000A847013CFAD14FF400412046FCF760FBC4
:109D7000DFF8BC82FCF74AFB954B9649A8EB030839
:109D80004FEAD8084FEA084848F0030A5046FCF763
:109D9000E7FCFCF7ADFB0028FBD1FFF763FFFFF703
:109DA00081FF8D4800F030FBFFF7AAFF8B480DF1D3
:109DB0001701FFF721FE002840F004819DF81720CD
:109DC0008DF81E20012307A8ADF81C3000F036FBEB
:109DD000002840F0F4808249824C834E9FED838AB4
:109DE000834F5046FCF7BCFC824801F03BFA02F07E
:109DF00085F802F0A1F803F08BF948F0010348F070
:109E000002090393FCF774FB0028FBD120BF2378E1
:109E1000002BF7D03378002BF4D07A884FF6FF73FD
:109E20009A42EFD03B89002BECD00DF11A0106A825
:109E300002F0D4F820B970494846FCF791FCE1E7FC
:109E400008A803F0C1F8E0B19DED087AFDEEC76AFD
:109E5000B5EEC07AF1EE10FAF8EEE67A00F18F80F6
:109E6000664A40F3968077EE677A67EE887A6449AF
:109E7000FDEEE77A16EE903ACDED007A5046FCF70B
:109E800019FF09A803F0F2F8D8B19DED097AFDEEAB
:109E9000C76AB5EEC07AF1EE10FAF8EEE67A7BD436
:109EA000564A40F3838077EE677A67EE887A5549A1
:109EB000FDEEE77A16EE903ACDED007A5046FCF7CB
:109EC000F9FE0BA90AA801F091FF0A9B4E4A4FEA3E
:109ED000E37882FB0312C8EBA20808EB8800A3EB2F
:109EE000400003F0A5F90B9900904848484A80FBD0
:109EF00001C0C917C1EB60114346019145482021BB
:109F000003F090FBBDF81A30434A00932021BDF8BE
:109F10001830424803F086FB3E4803F0D1F93D4932
:109F200082B2334801F0DEFB41F6583883464FF4E5
:109F30007A40A847B8F10108F9D1BBF1000F08D069
:109F400041F658384FF47A40A847B8F10108F9D1E2
:109F500058E7304A32495046FCF7E0FC2F4803F0FE
:109F6000AFF92E4982B2224801F0BCFB024600B391
:109F70002C490398FCF7D2FC00233370E0E7BFEED6
:109F8000006A1E4B284AB4EEC67AF1EE10FAD8BF2A
:109F90001A4677EEC77A68E7BFEE006A174B224A87
:109FA000B4EEC67AF1EE10FAD8BF1A4677EEC77A49
:109FB0007BE71A4A1D495046FCF7B0FCDCE7FDF789
:109FC000D5F908E7FDF7D2F9F8E600BF90F50200F1
:109FD00014F80200F4EB0200659B020098F5020001
:109FE0000CEC020054350020F42900200000C84287
:109FF000583500206835002020EC020084F2020071
:10A0000040EC020068EC0200676666661F85EB5153
:10A0100090EC020034350020A4EC0200143500203E
:10A02000B4EC0200E4EC02003CEC0200CCEC0200D8
:10A0300044F8020064DF7047F0B587B0054610238E
:10A0400010460E4602AA0DF103018DF80330FFF70A
:10A05000F1FF002D3ED000283CD19DF80320042ABA
:10A060002DD0102A51D0022A34D140F203236F7828
:10A07000ADF804300DF1040C0DF1060E1CF8011BB7
:10A08000B94245D0F6B1002401E0A64220D92B5DAB
:10A09000013413FA84F4A4B22B1920465B788B4266
:10A0A000F3D1A64214D90234F4452B5CA4B214D0E7
:10A0B000ACB91CF8011B8F42E5D12046F3E740F212
:10A0C0000543D4E7F44505D01CF8013BBB42F9D168
:10A0D000F445D3D1002007B0F0BD002CFAD05F1EAC
:10A0E000BFB2002FF6D0002605E09DF803201644ED
:10A0F000B6B2BE42EED2301902A9284403F0DAFA11
:10A100000028F2D1012007B0F0BD40F20763AEE7AE
:10A1100000200446C5E700BF9BDF70479DDF704706
:10A120009EDF70472DE9F04190F8C6E290F8C53205
:10A13000CEEB0E148446CEEB84040CEB44061046A2
:10A1400035795A1CAA4282B03AD0AB4232D264006E
:10A1500003EBC30E02EBC20204EB4E0E04F10A063F
:10A160000EF10A0E06EB4206E644664405F1FF389E
:10A17000BEF80870984507F1010E33D0F288964575
:10A180000FD0013A1FFA8EFE92B200230B7001A984
:10A19000ADF804E0ADF80620FFF7C2FF02B0BDE85D
:10A1A000F081B6460133DAB295428CF8C53206F139
:10A1B0001206DDD8012300200B7002B0BDE8F0814B
:10A1C000762403EBC30304FB0EFE0EEB430EE644C2
:10A1D0003289BEF812E09645ECD00EF1010E1FFA5E
:10A1E0008EFED2E70CEB04021289BA4203D001378B
:10A1F0001FFA87FEC9E74FF0000ED3E72DE9F04FB5
:10A20000474F3C680D4683B090F8C6123CB3C1EB93
:10A21000011CC1EB8C0C434B914600EB4C024FEA06
:10A220004C0E92F802C09A78624566D0012C16D086
:10A230009A79624567D0022C11D09A7A624568D02B
:10A24000032C0CD09A7B62450CD0042C07D09A7C4E
:10A25000624544D0052C02D09A7D624545D003B0BA
:10A26000BDE8F08F9E8930F80E209642EDD12E4B3E
:10A270001B680193002BF2D0DFF8B4A0DAF800805D
:10A28000B8F1050FEBD8294E762206EBC81B02FB6E
:10A2900001010BF10400ABF8029003F0CFF8019B31
:10A2A000CBF87C304FEAC81908F1010385F00105AD
:10A2B0006D00A34206F80950CAF80030CFD100243F
:10A2C000F36F304698473B6801349C4206F18006A4
:10A2D000F6D30023CAF8003003B0BDE8F08F1E8A21
:10A2E00030F80E209642B5D1C1E79A8A30F80E3088
:10A2F0009A42BCD003B0BDE8F08F1E8830F80E2023
:10A30000964293D1B3E79E8830F80E20964292D1C0
:10A31000ADE71E8930F80E20964291D1A7E700BF25
:10A32000BC350020C8380020C4350020C8350020C6
:10A33000C0350020F0B5314B1D6890F8C632A1B091
:10A3400045B31746C3EB0312C3EB820300EB430292
:10A350002B4C92F802C0A27862450E464FEA4303A6
:10A360003CD0012D16D0A27962453CD0022D11D0EF
:10A37000A27A62453CD0032D0CD0A27B62450BD063
:10A38000042D07D0A27C62451DD0052D02D0A27DF0
:10A3900062451DD021B0F0BDA189C25A9142EFD1D2
:10A3A000184B1C68002CF5D07C22002101A802F07B
:10A3B000F3FF01238DF80430ADF80670029601A872
:10A3C000A04721B0F0BD218AC25A9142DDD1E7E712
:10A3D000A28AC35A9A42E3D021B0F0BD2188C25A62
:10A3E0009142BED1DCE7A188C25A9142BED1D7E7E3
:10A3F0002189C25A9142BED1D2E700BFBC350020AC
:10A40000C8380020C435002068B130B40749084D71
:10A41000084C094A086000232B602360184601237A
:10A42000137030BC70470E20704700BFC435002049
:10A43000BC350020C0350020B8350020002866D08B
:10A44000354B1B784BB310B5344C354B2268002A82
:10A450005FD0817893F802C08C4520D0012A40D08B
:10A4600093F806C08C4525D0022A3AD093F80AC04A
:10A470008C4526D0032A34D093F80EC08C4527D0C3
:10A48000042A2ED093F812C08C4530D0052A28D04B
:10A490009A7D8A4232D0042010BD08207047B3F85C
:10A4A00000E0B0F800C0E645D8D11E490968B1B156
:10A4B000002010BDB3F804E0B0F800C0E645D3D1E9
:10A4C000F3E7B3F808E0B0F800C0E645D2D1ECE716
:10A4D000B3F80CE0B0F800C0E645D1D1E5E7052AB5
:10A4E000D9D8511C006843F822002160E0E7B3F896
:10A4F00010E0B0F800C0E645C8D1D6E79A8A0388D4
:10A500009A42C8D1074B1B68002BD1D1C3E70E205C
:10A5100070470121E6E700BFB8350020BC350020B8
:10A52000C8380020C435002088B31A4B1B7823B3E9
:10A53000194B1B680BB370B590F8C7520446F5B9B8
:10A540000E464FF43372294602F026FF134A144B8D
:10A5500010682060A4F8CA6284F8C952A4F8C552F1
:10A560002246304601211D60FFF7D6FD112808D094
:10A5700010B90123A4F8C73270BD0820704711201C
:10A5800070BD40F20113A4F8C732284670BD0E20FA
:10A59000704700BFB8350020BC350020C838002007
:10A5A000C0350020002800F0C4802DE9F0470D469A
:10A5B000A0B0002900F0AD80754B1B78002B00F097
:10A5C000A8800388322B044600F0EC8000F2B280B1
:10A5D000112B00F0A180302B70D18388B1F8CA22F2
:10A5E0009A4240F09680C18895F8C632002940F022
:10A5F0002082C3EB0312C3EB8202C06845F812004D
:10A6000005EB42012269C1F8062095F8C522A08811
:10A61000002A00F03A82013AD2B2762602EBC20258
:10A6200006FB03F303EB42032B445B8A01339BB22B
:10A630000A89ADF8043001A9ADF80620FFF76EFDD8
:10A64000064600283AD0002385F8C732514BB4F8AB
:10A6500004801A6895F8C6325AB3C3EB0311C3EBF2
:10A66000810305EB43014C4F8978B87888424FEA63
:10A67000430300F0BF83012A1BD0B879884200F061
:10A68000C783022A15D0B87A884200F0C883032A0B
:10A690000FD0B87B884200F0D083042A09D0B87C60
:10A6A000884200F0D883052A03D0BA7D8A4200F0A0
:10A6B00070823A4B03221A70A3F8028095F8C832D0
:10A6C0003BB32388303B9BB21F2B22D8B5F8CA324C
:10A6D000A4889C421DD14FF433720021284602F019
:10A6E0005BFE2D4A2E491068286000230B60A5F8F8
:10A6F000CA4285F8C932A5F8C5322A46204601214A
:10A70000FFF70AFD112800F08F8110B90123A5F889
:10A71000C73220B0BDE8F0878288B1F8CA329A42C9
:10A72000F7D100224FF6FF73A1F8C722A1F8CA3271
:10A73000EFE77047332BC1D18288B1F8CA329A4211
:10A74000BCD1C18895F8C67295F8C5C2002940F001
:10A7500039814389002B00F03581762007FB00F01A
:10A760000CEBCC0300EB430028442246D389A3F52D
:10A770002453082B00F21781DFE813F052014E0139
:10A780004B0115011501150115011501130100BF3C
:10A79000B8350020BC350020C8380020C83500205E
:10A7A000C03500208288B1F8CA329A42B1D1C3883C
:10A7B00091F8C672002B40F0CA80C7EB0718C7EBB0
:10A7C00088084FEA480105EB4808827A98F8046047
:10A7D0003244062A00F38681D2B288F80420394632
:10A7E000964280F0CE82762007FB00F006EBC6038F
:10A7F00000EB430305EB030CD4F80CE0D4F8108015
:10A80000CCF80E80CCF80AE01033B4F814E0ACF8C1
:10A8100012E02B444FF0000CC3F804C0C3F808C08A
:10A82000731C9A4240F2828003EBC30300EB4303A4
:10A8300005EB030ED4F81680D4F81A90CEF80E90DB
:10A8400010332B44CEF80A80B4F81E80AEF8128084
:10A85000C3F804C0C3F808C0B31C9A4266D903EB1E
:10A86000C30300EB430305EB030ED4F82080D4F8B8
:10A870002490CEF80E9010332B44CEF80A80B4F812
:10A880002880AEF81280C3F804C0C3F808C0F31CD7
:10A890009A424BD903EBC30300EB430305EB030ED2
:10A8A000D4F82A80D4F82E90CEF80E9010332B4492
:10A8B000CEF80A80B4F83280AEF81280C3F804C033
:10A8C000C3F808C0331D9A4230D903EBC30300EB31
:10A8D000430305EB030ED4F83480D4F83890CEF857
:10A8E0000E901033CEF80A802B440536B4F83C8025
:10A8F000AEF81280B242C3F804C0C3F808C015D93C
:10A9000006EBC60600EB46002E181030D4F842E0E5
:10A910002B18D4F83E00C6F80A00C6F80EE0B4F8CA
:10A9200046007082C3F804C0C3F808C0561E7620E3
:10A9300006EBC60600FB07F303EB46032B4400FBC4
:10A9400001F1588A6B181E89B042C0F0A080002720
:10A9500085F8C572A2880DF103012846FFF7E2FBD6
:10A960000646002840F0D9809DF80330002B3FF4C4
:10A97000A5AEA28801212846FFF740FC95F8C93210
:10A98000914AA78812680133DBB2934285F8C93235
:10A99000C0F0F9818D4B85F8C76203225F801A7081
:10A9A0008CE693894383838A2BB1C38A1BB1068BC0
:10A9B0000EB1438B33B963890131994202F106022A
:10A9C000FFF4D4AE762202FB07520CF10103127998
:10A9D000002693428DF8036045D101238DF80330A2
:10A9E000A28801212846FFF709FC95F8C932764A6A
:10A9F000A68812680133DBB2934285F8C932C0F0F1
:10AA00009C81724B002285F8C72203221A705E8057
:10AA100054E693898382C7E793890383838AC3E7D4
:10AA20009389C382838ABFE740F20113A5F8C73236
:10AA30006FE600212846FFF7E1FB634E95F8C93227
:10AA40003268B4F804800133DBB2934285F8C9322E
:10AA5000C0F0CA805D4B002285F8C72203221A701D
:10AA6000A3F802802AE685F8C532A2880DF1030119
:10AA70002846FFF757FB8046002840F025819DF8C7
:10AA80000330002B3FF41AAEAAE7CB88D0E5062AA4
:10AA90003FF45DAF85F8C522A088002A00F0A181AF
:10AAA000531EDBB203EBC30301EB43032B445B8A6E
:10AAB00001339BB201A9ADF80430ADF80660FFF791
:10AAC0002DFB00283FF4FAAD002385F8C73201467C
:10AAD000A2882846FFF72EFC3C4BA2885A8003210F
:10AAE0001970EBE53A4B3B4AA3EB02094FEAD9094F
:10AAF00006234FEA094988F8043049F002096A5AE6
:10AB000035494846FBF70AFF34494846FBF728FE1B
:10AB100098F8042095F8C61262E62B4A85F8C772A9
:10AB20001168B4F8048095F8C63200293FF4C1AD2D
:10AB3000C3EB0312C3EB820305EB4302284F927869
:10AB4000B87890424FEA430300F0448101293FF472
:10AB5000B0ADB879904200F0468102293FF4A9AD2A
:10AB6000B87A904200F04D8103293FF4A2ADB87B42
:10AB7000904200F05B8104293FF49BADB87C904289
:10AB800000F0628105293FF494ADB97D91427FF4D4
:10AB900090ADBA8AEB5A9A427FF48BAD114B1F6885
:10ABA000002F3FF486AD7C22002101A802F0F4FBC7
:10ABB0000123ADF80680029601A88DF80430B8474D
:10ABC000B4F8048075E500BFBC350020C83500200E
:10ABD0004CF8020014F80200FCEC020044ED020004
:10ABE000C8380020C435002095F8C632B84F01336C
:10ABF000DBB2C3EB0312C3EB820257F8230085F8E4
:10AC0000C6324FF0000985F8C59245F8120005EBF1
:10AC10004202012182F804904046FFF77DFA824605
:10AC200000283FF44BAD306895F8C62285F8C792EE
:10AC300000283FF43EADC2EB0211C2EB810205EBEE
:10AC40004201BE7889788E424FEA420200F04F817D
:10AC500001283FF42EADBE798E4200F056810228C5
:10AC60003FF427ADBE7A8E4200F05D8103283FF4A9
:10AC700020ADBE7B8E4200F04F8104283FF419AD19
:10AC8000BE7C8E4200F03A8105283FF412ADB87DBB
:10AC900088427FF40EADB98AAA5A91427FF409AD79
:10ACA0008C4A1668002E3FF404AD7C22002101A8D6
:10ACB00002F072FB0123CDF808A0ADF8068001A8D0
:10ACC0008DF80430B047F4E4834A85F8C76212680F
:10ACD000A68895F8C6325AB3C3EB0311C3EB8103C0
:10ACE00005EB43017A4F8978B87888424FEA4303ED
:10ACF00000F0B880012A1BD0B879884200F0CD80DE
:10AD0000022A15D0B87A884200F0CE80032A0FD0EC
:10AD1000B87B884200F0CF80042A09D0B87C8842F2
:10AD200000F0DE80052A03D0BA7D8A4200F0CA8096
:10AD30006A4B03221A705E80C0E495F8C6326449FB
:10AD40000133DBB2C3EB0312C3EB820251F82300E1
:10AD500085F8C632002785F8C57245F8120005EB64
:10AD60004202012117713046FFF7D6F900283FF45F
:10AD7000A5AC014685F8C77232462846FFF7DAFAD5
:10AD8000D6E7013ED3E595F8C632514985F8C5624C
:10AD90000133DBB2C3EB0312C3EB820251F8230091
:10ADA00085F8C63245F8120005EB42020121167102
:10ADB0003846FFF7B1F900283FF480AC3A46014627
:10ADC00085F8C7622846FFF7B5FA444B03221A708C
:10ADD0005F8073E4B7F800C0E85A84457FF4B6AEEC
:10ADE000DCE6DB8866E6B7F804C0E85A84457FF401
:10ADF000B4AED3E635F803C0388884457FF43BAC65
:10AE0000CCE6B7F808C0E85A84457FF4ADAEC5E695
:10AE100035F803C0B88884457FF433ACBEE635F816
:10AE200003C0388984457FF432ACB7E6B7F80CC06C
:10AE3000E85A84457FF49FAEB0E635F803C0B88980
:10AE400084457FF42AACA9E6B7F810C0E85A8445D7
:10AE50007FF498AEA2E635F803C0388A84457FF4C3
:10AE600022AC9BE6B7F800C0E85A84457FF442AFB5
:10AE7000184B1F68002F3FF45BAF7C22002101A814
:10AE800002F08AFA0123ADF80660CDF8088001A827
:10AE90008DF80430B847A6884AE7B7F804C0E85AE6
:10AEA00084457FF42DAFE3E7B7F808C0E85A84453E
:10AEB0007FF42CAFDCE7B7F80CC0E85A84457FF488
:10AEC0002BAFD5E7BA8AEB5A9A427FF431AFCFE77E
:10AED000C8380020C4350020BC350020C83500200B
:10AEE000B7F810C0E85A84457FF41CAFC0E735F8C6
:10AEF00002C03E88B4457FF4ABAED1E635F802C05F
:10AF00003E8AB4457FF4C0AECAE635F802C0BE88BA
:10AF1000B4457FF4A4AEC3E635F802C0BE89B4459B
:10AF20007FF4ABAEBCE635F802C03E89B4457FF491
:10AF30009DAEB5E690DF7047A5DF7047B5DF70477F
:10AF400070B5002484B061F30F04002361F31F4443
:10AF50006A4602A90294064603930093ADF80430B2
:10AF6000FFF7E8FF044610B9204604B070BD124B4D
:10AF7000124DED1AED08FDF79FF92D0445F001057E
:10AF800003460F4932462846FBF7AEFDBDF80020C8
:10AF9000BDF8023052EA030103D00A492846FBF704
:10AFA000A3FDBDF80420002ADED028460649FBF7A1
:10AFB000B5FC204604B070BD14F802006CF8020025
:10AFC000ACED0200F8ED020038EE02008288002AA3
:10AFD00049D110B50388242B82B00C461FD80F2B03
:10AFE00018D9103B142B15D8DFE803F0957B141407
:10AFF0001414141414141414141414141414140B1A
:10B000008400017A237B99424FF0000028BF194643
:10B01000FFF796FFA37A002B2FD102B010BD3A2B79
:10B0200047D0552BF6D1C388C988A272172B38BFD9
:10B0300017238B4228BF0B4623811046FFF77EFF64
:10B04000002840F08B80E37A002BE3D12369002BAA
:10B05000E0D02289ADF8042040F677210091204607
:10B0600069469847D6E77047112840F08580237BD2
:10B07000627B01219A42A1725DD3E1880020FFF733
:10B080005BFF88B11128C8D0FDF716F9424B434940
:10B09000024643481B1ADB081B0443F0010002B0C0
:10B0A000BDE81040FBF73ABC4FF48073638102B0F7
:10B0B00010BD4389C98822698B4228BF0B46172BD4
:10B0C00038BF172323814AB1E17A39B140F677219D
:10B0D0000091ADF804306946204690470023638113
:10B0E0009BE73049C4F80610002241F6FB33628129
:10B0F000A38192E70B69027A4A73002B8AD0002061
:10B100004DF67A218DF8050000918DF804206946EE
:10B11000204698477EE70B790B73C27B012A11D03A
:10B12000022A0DD14988E18022898A420DD3627BAF
:10B130009A42BFF46FAF19460020FFF701FF69E79D
:10B14000C988F1E70988E180EEE70020FFF7F4FE07
:10B15000002889D10122237BE272E8E7FDF7ACF8F1
:10B160000D4B114902460E481B1ADB081B0443F025
:10B170000100FBF7D3FB66E7FDF79EF8064B074996
:10B18000024607481B1ADB081B0443F00100FBF7CB
:10B19000C5FB237BCBE700BF6CF8020090EE0200FA
:10B1A00014F80200F7001700C4EE02008ADF7047AF
:10B1B0008BDF70478CDF704700284ED070B50E468D
:10B1C000426200210822044602F0E6F8EEB133792B
:10B1D0002372337BA374356855B3AA6828686968FD
:10B1E00004F1140307C3AA891A80B3686BB31A6801
:10B1F0005B68C4F80E30C4F80A2004F128021F234B
:10B20000A264A4F84C30002070BD6369144AC4F8ED
:10B210000A2003F0E30343F4200343F48273502134
:10B2200063614FF0C873A161C4F80E302672E4E781
:10B23000636903F0E30343F4200343F48273502271
:10B24000C4E90532B368002BD1D1054AC4F80A20FD
:10B250004FF0C873C4F80E30CFE70E20704700BF20
:10B260000600180068B310B5044686B01422002109
:10B2700001A802F091F8FFF79BFF237D1B0717D46D
:10B2800004F1480104F11400FFF790FF044630F088
:10B2900008000BD00C4B0D480D49C01AC008000423
:10B2A00040F001002246FBF739FB204606B010BDF6
:10B2B000636A002BE4D001228DF8042001A898478E
:10B2C000DEE70E20704700BF14F802005CF80200B1
:10B2D00004EF02002DE9F04F07468BB037F8083B2A
:10B2E000103B06460C46102B1DD8DFE803F0091C66
:10B2F0001C1C1C1C1C1C1C1C1C771C381C1C1F0030
:10B3000014220DEB0200002102F046F807238DF80D
:10B310001430636AB28806971434ADF81C2009947F
:10B320000BB105A898470BB0BDE8F08F14220DEBC8
:10B330000200002102F030F8626A002AF3D0B068FF
:10B340007968143406AB052509948DF8145003C3AD
:10B350003C7A1C7005A890470BB0BDE8F08F142212
:10B360000021684602F018F8237D04F1140813F058
:10B370000805CDF8108050D16379A279002B79D1DE
:10B380000197002A44D0227AA77C00258DF800502E
:10B39000C2B1FFF70DFF142229460DEB020001F0A8
:10B3A000FBFF3B46414606F10A0004F10A02FFF7A3
:10B3B00001FF06238DF814300690636A18B113B1AB
:10B3C00005A89847636A0BB16846984704F148019D
:10B3D0000020FFF7EBFE0BB0BDE8F08F1422002138
:10B3E0000DEB020001F0D8FF337A012B9BD1626A8A
:10B3F000002A98D0042114348DF8141009948DF883
:10B40000183005A890478EE70435AA453DD101972D
:10B410000322636A8DF80020D5E70222636A8DF863
:10B420000020684601979847002004F14801FFF783
:10B43000BDFE237A002B3FF476AFA57CFFF7B8FE64
:10B44000142200210DEB020001F0A6FF2B4641461D
:10B4500006F10A0004F10A02FFF7ACFE06238DF89C
:10B460001430069000283FF45EAF636A002B7FF42F
:10B4700058AF58E794F804A0B6F82490BAF1000F3A
:10B480004ED09ABB04EB8A0A2546306A2A464946C2
:10B49000FEF7D2FD0028B7D09DF80830227A019738
:10B4A000002543F00403A77C8DF800508DF8083088
:10B4B000002A87D0FFF77CFE142229460DEB0200FC
:10B4C00001F06AFF3B46414606F10A0004F10A0218
:10B4D000FFF770FE06238DF814300690636A00288B
:10B4E0003FF471AF002B7FF46BAF6FE7A34605E02D
:10B4F0006B1CDDB2AA450BF1040B09D0306A5A4629
:10B500004946FEF799FD0028F2D1AA457FF47FAFA6
:10B510009DF80830019743F004038DF8083032E7B6
:10B52000002AF5D173E700BFA3DF704762DF7047E1
:10B530002DE9F0410C4686B0002506461422294626
:10B5400001A801F029FF237813B9A388012B02D0A9
:10B5500006B0BDE8F081A27933789A42F8D1237A17
:10B5600013B3122111FB03412F46A8462346284658
:10B57000AC4608E0032A03D1DF8AB3F81880012023
:10B5800012338B4206D0DA89022AF3D1DD8A4FF0DA
:10B59000010CF5E718B1ADF81480ADF81270BCF1EC
:10B5A000000F01D0ADF81650F368002BD0D06188A1
:10B5B000ADF8061000228DF8042001A93046984706
:10B5C000C6E700BF30B5134B0D4604460FCB87B01E
:10B5D0000DF1080C8CE80F00CCB1C5B121466046D6
:10B5E000FFF7A4FF08B107B030BD4FF6FF736380CB
:10B5F00029682278A08001232081E16001A88DF8CC
:10B600000620ADF80430FEF719FF07B030BD0E205C
:10B6100007B030BDA8F5020071B368B300B54A8821
:10B620000B464FF6FF718A4287B00FD08188914256
:10B6300009D10288112A12D0392A04D19A8812B16C
:10B640004189914219D007B05DF804FB01881129A6
:10B6500002D03929F7D1F1E781889142F3D1DA6834
:10B66000002AF0D002204FF6FF718DF804005980B7
:10B67000184601A99047E6E77047DA68002AE2D049
:10B68000C1898DF810104FF0010C103003908DF827
:10B6900004C001A918469047D5E700BF00B3034690
:10B6A00040884FF6FF72904218D0DB88B3B100B5E6
:10B6B00085B040F201114FF0010C4FF40032ADF8AB
:10B6C000041001A9ADF800C0ADF806300292CDF823
:10B6D0000CD0FFF729FF05B05DF804FB0820704788
:10B6E0000E20704748B310B5F42A84B018D803462A
:10B6F00040880C464FF6FF71884220D01989ADF87A
:10B7000006104FF48173ADF8043001A90023ADF8A1
:10B710000830ADF80A200394FFF706FF04B010BD0F
:10B720000D4B0E480E49C01AC008000440F002003C
:10B73000FBF716F8072004B010BD0E207047064B2B
:10B7400006480849C01AC008000440F00200FBF790
:10B7500007F80820E2E700BF14F8020054F80200DE
:10B7600034EF020048EF020048B141802AB153880B
:10B77000C3801388838093880381002070470E2044
:10B78000704700BF10DF704730B53B4D3B4985B077
:10B79000012302A82B70FCF779FD039B2BB90EE067
:10B7A00002A8FCF77DFD039B4BB1D3E900210020EB
:10B7B00090470028F4D10024204605B030BD304920
:10B7C00002A8FCF763FD039B4BB1D3E900210020E5
:10B7D000904702A8FCF764FD039B002BF5D1294A92
:10B7E00000231268019202A88DF80830FCF712F8C5
:10B7F000254901A8FFF7C6FF244AB0FA80F30446A2
:10B800005B099DF808001370FCF72AF8002CD3D1CF
:10B810001F4B20492C70E0220C7083F8162383F80C
:10B82000152393F81613EC2249090A41D2071DD5B6
:10B83000194A9168A9B94FF480021A60104902A808
:10B84000FCF724FD039B002BB5D0D3E90021012098
:10B85000904702A8FCF724FD039B002BF5D10024A0
:10B86000AAE7136843F480031360E7E742F202009B
:10B87000FBF77CFDE2E700BFE0380020D0F50200D6
:10B88000C4F50200DCF502008D730200E2380020EE
:10B8900000E100E0E1380020FC330020034B1B787E
:10B8A0000BB9FFF771BF0820704700BFE2380020D6
:10B8B000014B1878704700BFE238002000B583B014
:10B8C00008496846FCF7E2FC019B43B1D3E900203C
:10B8D00090476846FCF7E4FC019B002BF6D103B0CF
:10B8E0005DF804FBB8F5020060DF704769DF704760
:10B8F00061DF704730B5154DADF5017D4FF4FA7439
:10B900000DF1020103A8ADF80240FFF7F1FF88B97D
:10B91000294601A8FCF7BAFC029B002BF0D0D3E922
:10B92000002103A8904701A8FCF7BAFC029B002B5A
:10B93000F5D1E5E7052802D10DF5017D30BD0DF506
:10B94000017DBDE83040FBF711BD00BFE0F502000E
:10B95000024B1B780BB1FFF7CDBF7047E3380020D7
:10B96000002900F0C58030B5624B0B6085B00546FC
:10B970000C460C22002101A801F00EFD0122062335
:10B980008DF8062001A922688DF804502020ADF81A
:10B990000830FFF7ABFF002854D10C22002101A88A
:10B9A00001F0FAFC4FF480720123ADF8052001A9E3
:10B9B00022688DF807304020FFF798FF002840F0FC
:10B9C00089800C22002101A801F0E6FCF7232268FF
:10B9D0008DF8045001A92320ADF80630FFF786FF4B
:10B9E000002869D10C22002101A801F0D5FC01201A
:10B9F00022688DF8040001A9FFF778FF00284DD1D7
:10BA00000C22002101A801F0C7FC4FF4B0632268AA
:10BA10000193A12001A9FFF769FF88BB0C22002137
:10BA200001A801F0B9FC9DF80430226823F001035D
:10BA3000A02001A98DF80430FFF758FF80B900203D
:10BA400005B030BDFCF738FC2B4B2C4902462C4886
:10BA5000181AC008000440F00100FAF75FFF9CE7E5
:10BA6000FCF72AFC244B2749024625481B1ADB0811
:10BA70001B0443F00100FAF751FF002005B030BD70
:10BA8000FCF71AFC1C4B204902461D48181AC00836
:10BA9000000440F00100FAF741FFBFE7FCF70CFC9F
:10BAA000154B1A4902461648181AC008000440F0FF
:10BAB0000100FAF733FFA3E7FCF7FEFB0E4B144936
:10BAC00002460F48181AC008000440F00100FAF7B7
:10BAD00025FF87E7FCF7F0FB074B0E4902460848B5
